:020000040800F2
:100000000050002021020008270200082B020008EF
:100010009D020008A1020008E9020008000000009B
:100020000000000000000000000000003103000894
:100030003503000800000000390300089D0900088E
:100040004D0300084D0300084D0300084D03000850
:100050004D0300084D030008590800084D0300082F
:100060004D0300084D0300084D0300084D03000830
:100070004D0300084D0300084D0300084D03000820
:100080004D0300084D0300084D0300084D03000810
:100090004D0300084D0300084D0300084D03000800
:1000A0004D0300084D0300084D0300084D030008F0
:1000B0004D0300084D0300084D0300084D030008E0
:1000C0004D0300084D0300084D0300084D030008D0
:1000D0004D0300084D0300084D0300084D030008C0
:1000E0004D0300084D0300084D0300080000000008
:1000F0000000000000000000000000000000000000
:1001000000000000000000005FF808F100B583B0B7
:1001100000F0AAF9304B314A1360314A1360314B79
:10012000314A32498B4204D21168196004330432D7
:10013000F7E72A4B1A682E4B9A4200D0FEE7284B6D
:100140001A682C4B9A42F9D1234B2B4A13602B4A45
:1001500013602B4B02E000221A600433294A9342B9
:10016000F9D3254B1B6813B9244B1B6803B1FEE779
:1001700000F086F9694601A800F022F9224C234BD1
:10018000E41AA4100025AC4214DC214C214BE41AE3
:10019000A4100025AC4213DC0099019800F040FC4B
:1001A00005461D4C1D4BE41AA410002C0EDC2846FD
:1001B00000F0E2F8154B53F8253098470135E2E797
:1001C000144B53F8253098470135E3E7013C134BB6
:1001D00053F824309847E8E7BABADECA0000002096
:1001E000404D00200000002020160008444D002053
:1001F0007856341232547698444D0020B44E002084
:10020000444D0020B84E0020780300087803000811
:1002100078030008780300087803000878030008D2
:1002200008B5FFF773FF00BEFEE71EF0040F0CBF1A
:10023000EFF30880EFF309807146414A10472DE93A
:10024000F04182B004468846124B5E6B9F6B9D6AFC
:100250001B6B13F0020F03D00E4BDB6A002B0CDB81
:100260000D4800F0B5F8CDF800803B4632462946EF
:10027000204600F009F900BEFEE74BF6AB6100F046
:100280007DF90028ECD0034B4FF00042DA6202B057
:10029000BDE8F08100ED00E0C015000800BEFEE7FB
:1002A0001EF0040F0CBFEFF30880EFF309807146D6
:1002B000244A10472DE9F04182B004468846084B95
:1002C0005E6B9F6B9D6A074800F082F8CDF8008056
:1002D0003B4632462946204600F0D6F800BEFEE7EF
:1002E00000ED00E0D01500081EF0040F0CBFEFF386
:1002F0000880EFF309807146134A10472DE9F04159
:1003000082B004468846084B5E6B9F6B9D6A074827
:1003100000F05EF8CDF800803B4632462946204684
:1003200000F0B2F800BEFEE700ED00E0DC150008CA
:1003300000BEFEE700BEFEE700BEFEE7704700001D
:100340003F020008B5020008FD02000800BEFEE7FB
:100350002016000800000020444D00202016000850
:100360000000000000000000444D0020B84E0020B6
:08037000000000000000000085
:10037800FEE7000008B503460C4A12685AB10B4A5A
:100388001068033323F003030344094A934206D851
:10039800064A136008BD054A06491160EFE700F0F8
:1003A8004DFC0C2303604FF0FF30F3E7484D00206D
:1003B800004C0020B84E002001230360014B0B6065
:1003C800704700BF040000200FB400B583B004AB31
:1003D80053F8042B01938021064800F061FC0028A3
:1003E80003DD0146034800F037F803B05DF804EB7D
:1003F80004B07047504D00202DE9F04385B0044605
:100408000F4643560BB10E461EE0042528462146EA
:10041800ABBE0446384605B0BDE8F08314F9011BAD
:1004280004AA1A4402F8101C0133AB42F6D304AAFA
:100438001344002203F8102C4FF00408E946404604
:100448004946ABBE8046761B002EE3D03546102EBB
:1004580028BF10250023E8E708B5FFF7CDFF08BD42
:1004680008B500F0FDF8024A024B9A6008BD00BFCB
:100478000000000800ED00E008B500F019F908BD1B
:10048800F8B504460D4617461E462748FFF79CFF59
:1004980021682648FFF798FF61682548FFF794FF11
:1004A800A1682448FFF790FFE1682348FFF78CFF15
:1004B80021692248FFF788FF61692148FFF784FF17
:1004C800A1692048FFF780FFE1691F48FFF77CFF1B
:1004D8001E48FFF779FF29461D48FFF775FF1D4C99
:1004E800E16A1D48FFF770FF216B1C48FFF76CFF9E
:1004F800E16B1B48FFF768FF15F0800F0AD115F470
:10050800004F0CD11748FFF75FFF06991648FFF711
:100518005BFFF8BD39461548FFF756FFEFE7314650
:100528001348FFF751FFEDE7A4140008B4140008BE
:10053800C4140008D4140008E4140008F4140008D3
:1005480004150008141500082415000834150008BF
:100558004015000800ED00E050150008601500087F
:1005680070150008A0150008A815000880150008D7
:100578009015000883691A888A4201D000207047C4
:100588000268033A012A03D80233836101207047C5
:100598000020704782B00023019300932C4A13680F
:1005A80043F4803313602A4B1B6803F40033009331
:1005B800019B01330193009B1BB9019BB3F5A06F0D
:1005C800F1D1234B1B6813F4003F06D0012300939D
:1005D800009B012B04D002B0704700230093F7E77B
:1005E8001C4B1A6842F010021A601A6822F00302C3
:1005F8001A601A6842F002021A60A3F580535A681A
:100608005A605A685A605A6842F480625A605A6856
:1006180022F47C125A605A6842F4E8125A601A6846
:1006280042F080721A600A4B1B6813F0007FFAD000
:10063800074B5A6822F003025A605A6842F00202D5
:100648005A60034B5B6803F00C03082BF9D1C2E72F
:10065800001002400020024008B5FFF79BFF08BDCC
:1006680008B5104B1A6842F001021A6059680E4A20
:100678000A405A601A6822F0847222F480321A60A2
:100688001A6822F480221A605A6822F4FE025A601C
:100698004FF41F029A60FFF7DFFF044B4FF0006230
:1006A8009A6008BD001002400000FFF800ED00E06D
:1006B8001F4B5B6803F00C03042B15D0082B17D0D5
:1006C8001BB11C4B1C4A1A6002E01A4B1A4A1A60EA
:1006D800174B5B68C3F30313184AD35CDAB21549A6
:1006E8000B68D3400B607047124B134A1A60EFE750
:1006F8000F4A53685268C3F38343023312F4803FAE
:100708000AD00B4A526812F4003F0BD00C4A02FB85
:1007180003F3084A1360DBE7094A02FB03F3054ABF
:100728001360D5E7044A02FB03F3024A1360CFE7DC
:10073800001002401C00002000127A000C0000206B
:1007480000093D0010B4012824D018B1022841D076
:1007580010BC7047072910D90F29F9D8A1F108044E
:10076800E4B2A4000F23A3402A48016821EA030346
:1007780002FA04F119430160EAE789000F2303FA3A
:1007880001F0254C236823EA000302FA01F119431A
:100798002160DDE7072910D90F29D9D8A1F1080070
:1007A800C0B280000F2383401C4C216821EA030358
:1007B80002FA00F119432160CAE789000F2303FAFE
:1007C80001F0174C236823EA000302FA01F11943E8
:1007D8002160BDE7072910D90F29B9D8A1F108036D
:1007E800DBB29B000F2098400E4C216821EA0000E4
:1007F80002FA03F101432160AAE789000F2303FAF3
:1008080001F0094C236823EA000302FA01F11943B5
:1008180021609DE70408014000080140040C0140E4
:10082800000C01400410014000100140044B1A68FC
:1008380042F001021A60DA6842F00102DA60704799
:1008480000040140014B1860704700BFD04D0020E4
:1008580008B5044B1B689847034A536943F00103E2
:10086800536108BDD04D002000040140014B024AED
:100878001A6070470CED00E000A55F001F2809D939
:100888003B2806D82038C0B2012303FA00F0044BF5
:1008980018607047012303FA00F0014B1860704795
:1008A80000E100E0034B4FF480321A600433012268
:1008B8001A607047001002401F291CD801280BD06D
:1008C80010B1022810D07047012303FA01F10A4A37
:1008D80013680B4313607047012303FA01F1074AB9
:1008E80013680B4313607047012303FA01F1044AAC
:1008F80013680B4313607047141002401C10024029
:1009080018100240014B00221A60704710E000E006
:100918000B4B18600B4A136843F00103136000E0A7
:1009280000BF084B1B6813F4803FF9D023F0010384
:10093800044A1360002304321360043213607047C2
:1009480014E000E010E000E030B40A4B1A6800241C
:10095800094D2C60043D286042F001021A60074AE4
:100968001160074A14701A6842F002021A6030BC1B
:10097800704700BF10E000E018E000E0D44D002010
:10098800D84D0020024B186804331B68C01A704702
:1009980014E000E008B5094B1B785BB9084A1368F6
:1009A80023F0020343F001031360002304321360B1
:1009B80004321360034B1B68984708BDD84D0020CC
:1009C80010E000E0D44D002038B50E4B1B7883B101
:1009D8000D4C2578EDB2FFF7D5FF0C4B43F82500F9
:1009E8000B490C48FFF7B0FF23780133DBB22370C3
:1009F80038BD07490748FFF7A7FF024B01221A70C5
:100A0800F6E700BFA64E0020A54E0020DC4D0020D2
:100A1800B50B000840420F0008B5FFF743FF02215D
:100A28000846FFF749FF03210220FFF745FF04228C
:100A380000210846FFF786FE022201210020FFF769
:100A480081FE022211460020FFF77CFE02220321CC
:100A58000020FFF777FE022204210020FFF772FE34
:100A6800022205210020FFF76DFE02220621002048
:100A7800FFF768FE022207210020FFF763FE02222B
:100A880008210020FFF75EFE0648FFF7DBFEFFF7B0
:100A9800CDFEFFF7EBFE0620FFF7F0FEFFF732FF73
:100AA800FEE700BFD109000808B50D4B00221A80E7
:100AB8000DE00B4A13889BB20A49C95C0A4B1960BE
:100AC800138801339BB213807D20FFF721FF044B6D
:100AD8001B889BB241F6F1029342EAD908BD00BFD8
:100AE800DA4D0020200000200C08014008B50D4B0D
:100AF80000221A800DE00B4A13889BB20A49C95C90
:100B08000A4B1960138801339BB213807D20FFF7CD
:100B1800FFFE044B1B889BB240F6F7429342EAD98A
:100B280008BD00BFDA4D0020141900200C08014050
:100B380008B50D4B00221A800DE00B4A13889BB2B2
:100B48000A49C95C0A4B1960138801339BB21380A8
:100B58007D20FFF7DDFE044B1B889BB245F6E7724C
:100B68009342EAD908BD00BFDA4D00200C260020C8
:100B78000C08014008B50C4B1B78DBB20C2B0CD0D1
:100B880006D9182B0CD0462B09D1FFF7AFFF06E08A
:100B9800082B04D1FFF7CCFF01E0FFF785FF08BD64
:100BA800FFF7A4FFFBE700BFA44E002008B51F4BCA
:100BB80000221A701E4B1A6842F20F739A422DD9FE
:100BC8001B4B1A6843F2B0639A4227D8002309E006
:100BD800012202FA01F11548027822EA01020270A4
:100BE8000133DBB2072B17D8194603F11100104A5D
:100BF80052F82020B2F5FA6FEAD30D4A52F82000D5
:100C080040F6FC029042E3D801229A400748017856
:100C18001143C9B20170E3E7FFF7ACFF0023054AAF
:100C28001370034A1360044A137008BDA44E0020D1
:100C3800DC4D0020A64E0020A54E0020014B186870
:100C4800704700BFDC4C002030B5141E05469BB031
:100C5800184605DA8B234FF0FF302B601BB030BDF0
:100C68004FF40273ADF80C300CBF234604F1FF3388
:100C7800029305934FF6FF7300910491ADF80E307F
:100C880002461E9B6946284600F072F8431CBCBF0A
:100C98008B232B60002CE1D00022009B1A70DDE72B
:100CA80007B5009313460A46014603480068FFF754
:100CB800CBFF03B05DF804FBDC4C00202DE9F047C6
:100CC8008E6882469E420C469046994637D88A8955
:100CD80012F4906F31D00223256809696F1A65698B
:100CE80005EB450595FBF3F509F101033B449D42EE
:100CF80038BF1D46530530D5294600F035FB06465A
:100D080050B90C234FF0FF30CAF80030A38943F0E4
:100D18004003A381BDE8F0873A46216900F0B4FAA0
:100D2800A38923F4906343F08003A38126613E44A2
:100D380026604E466561ED1BA5604E4500D94E46BE
:100D480032464146206800F0AAFAA36800209B1B9F
:100D5800A36023681E442660DCE72A4600F05EFB99
:100D680006460028E2D12169504600F0B1FAC8E7EA
:100D78002DE9F04F9DB003938B8980461D060C46E4
:100D880016460FD50B696BB9402100F0EDFA2060CB
:100D9800206128B90C23C8F800304FF0FF30C7E0B5
:100DA800402363610023099320238DF829303023E1
:100DB8004FF0010B8DF82A3037463D4615F8013BB8
:100DC8000BB1252B3ED1B7EB060A0BD05346324662
:100DD80021464046FFF772FF013000F0A480099BCE
:100DE800534409933B78002B00F09D8000234FF07B
:100DF800FF32CDE90523049307938DF853301A93F6
:100E08002F46052217F8011B4F4800F02FFA049BC4
:100E1800D0B9D90644BF20228DF853201A0744BF01
:100E28002B228DF853202A782A2A15D02F46002005
:100E38000A25079A394611F8013B303B092B4DD951
:100E4800B8B10FE02F46B8E73F4A3D46801A0BFA83
:100E580000F018430490D3E7039A111D1268039118
:100E6800002A01DB079204E0524243F00203079292
:100E780004933B782E2B0CD17B782A2B33D1039B00
:100E880002371A1D1B680392002BB8BF4FF0FF33BF
:100E980005932E4D03223978284600F0E7F938B13A
:100EA8004023401B03FA00F0049B013703430493DB
:100EB8003978062226487E1C8DF8281000F0D6F9CD
:100EC800002838D0234B13BB039B073323F00703B9
:100ED80008330393099B4B4409936DE705FB0232E2
:100EE80001200F46A6E700230A2519460137059376
:100EF800384610F8012B303A092A03D9002BC8D0FC
:100F08000591C6E705FB012101230746F0E703AB7E
:100F180000932246104B04A94046AFF30080B0F17D
:100F2800FF3F8146D6D1A3895B063FF536AF0998C6
:100F38001DB0BDE8F08F03AB00932246064B04A911
:100F4800404600F081F8EAE7EC150008F2150008C1
:100F5800F615000800000000C50C00082DE9F04750
:100F680091461F468A680B6906469342B8BF1346E6
:100F7800C9F8003091F843200C46DDF8208012B102
:100F88000133C9F800302368990642BFD9F8003008
:100F98000233C9F80030256815F0060507D104F1B9
:100FA800190AE368D9F800209B1AAB4229DC94F8A7
:100FB80043302268003318BF012392062ED404F16F
:100FC800430239463046C047013021D02368E568DE
:100FD80003F00603042B18BF0025D9F800204FF0B2
:100FE800000908BFAD1AA368226908BF25EAE5759C
:100FF8009342C4BF9B1AED181A344D451AD10020EC
:1010080008E00123524639463046C047013003D133
:101018004FF0FF30BDE8F0870135C2E73020E11816
:1010280081F843005A1C94F845102244023382F890
:101038004310C4E70123224639463046C0470130F1
:10104800E6D009F10109D8E72DE9F04301F1430C95
:101058000C46097E85B06E291746064698460C9AB6
:1010680000F0B38022D8632936D00AD8002900F0CE
:10107800B980582900F0838004F1420584F84210B1
:1010880032E0642901D06929F6D120681368050681
:1010980003F104012AD51B681160002B03DA2D2205
:1010A8005B4284F843206F480A2239E0732900F034
:1010B8009D8008D86F2920D07029DDD1236843F09E
:1010C8002003236003E0752917D07829D4D1782329
:1010D800654884F8453055E0136804F14205191D48
:1010E8001B68116084F8423001238CE01B6810F003
:1010F800400F116018BF1BB2CFE713682568181D91
:101108001060280601D51B6802E06806FBD51B881D
:101118006F2914BF0A2208225248002184F843107C
:101128006568002DA560C0F29580216821F0040152
:101138002160002B3DD1002D40F08E806546082AA5
:101148000BD12368DB0708D5236962689A42DEBFA2
:10115800302305F8013C05F1FF35ACEB05032361AD
:10116800CDF800803B4603AA21463046FFF7F6FE3D
:1011780001304DD14FF0FF3005B0BDE8F08339485C
:1011880084F84510136821681D1D1B6815600A0640
:101198000BD5CA0744BF41F0200121601BB9226862
:1011A80022F0200222601022B7E74D0648BF9BB20A
:1011B800EFE76546B3FBF2F102FB1133C35C05F8B8
:1011C800013D0B460029F5D1B9E713682568181DBC
:1011D8006169106028061B6801D5196002E06A067B
:1011E800FBD51980002365462361B9E71368191DEB
:1011F80011601D6862680021284600F037F808B1C0
:10120800401B606063682361002384F84330A7E7CC
:1012180023692A4639463046C0470130AAD0236898
:101228009B0713D4E068039B9842B8BF1846A3E70E
:1012380001234A4639463046C04701309AD0013525
:10124800E368039A9B1AAB42F2DCEBE7002504F152
:101258001909F5E7002BACD1037804F1420584F8AD
:1012680042306CE7FD1500080E16000810B5C9B22B
:1012780002449042034601D1002303E01C78013068
:101288008C42F6D1184610BD10B5431E0A4491424F
:1012980000D110BD11F8014B03F8014FF7E7884260
:1012A80010B501EB020307D8421E99420AD011F883
:1012B800014B02F8014FF8E78342F5D98118D21A99
:1012C800D34200D110BD13F8014D01F8014DF7E7E5
:1012D80038B50546002943D051F8043C0C1F002BB3
:1012E800B8BFE41800F0D0F81E4A1368104633B9A6
:1012F800636014602846BDE8384000F0C6B8A342D1
:101308000BD921686218934201BF1A685B685218AA
:10131800226063600460EDE713465A680AB1A2428E
:10132800FAD919685818A0420BD1206801445818F6
:1013380082421960DED110685268014419605A600F
:10134800D8E702D90C232B60D4E7206821188A42F9
:1013580001BF116852680918216062605C60C9E7C2
:1013680038BD00BFA84E002070B5CD1C25F0030580
:1013780008350C2D38BF0C25002D064601DBA94287
:1013880003D90C233360002070BD00F07DF8214A9A
:101398001468214691B9204C23681BB9304600F0E7
:1013A80063F820602946304600F05EF8431C24D1DB
:1013B8000C233046336000F068F8E4E70B685B1BE9
:1013C80018D40B2B0FD90B60CC18CD50304600F039
:1013D8005CF804F10B00231D20F00700C31AD3D0DA
:1013E8005A42E250D0E74B688C4216BF63601360E4
:1013F8000C46EBE70C464968CCE7C41C24F0030410
:10140800A04205D0211A304600F02EF80130CFD086
:101418002560DBE7A84E0020AC4E0020F8B5074653
:1014280014460E4621B9BDE8F8401146FFF79CBFA7
:1014380022B9FFF74DFF25462846F8BD00F026F8EB
:10144800A0420FD221463846FFF78EFF05460028F6
:10145800F2D031462246FFF717FF31463846FFF7EC
:1014680037FFE9E73546E7E738B50023054C054679
:1014780008462360FEF77EFF431C02D1236803B1B0
:101488002B6038BDB04E00207047704751F8043CBF
:10149800181F002BBCBF0B58C018704753746163EA
:1014A8006B206672616D653A0A0000002052302098
:1014B8003D2020253038580A0000000020523120F5
:1014C8003D2020253038580A0000000020523220E4
:1014D8003D2020253038580A0000000020523320D3
:1014E8003D2020253038580A0000000020523132B3
:1014F800203D20253038580A00000000204C52209A
:101508003D2020253038580A000000002050432094
:101518003D2020253038580A000000002050535242
:10152800203D20253038580A000000004653522F2D
:101538004641523A0A0000002043465352203D20BB
:1015480020253038580A00002048465352203D20B4
:1015580020253038580A00002044465352203D20A8
:1015680020253038580A00002041465352203D209B
:1015780020253038580A0000204D4D464152203D64
:1015880020253038580A00002042464152203D208C
:1015980020253038580A00004D6973630A0000009E
:1015A800204C522F4558435F52455455524E3D20CA
:1015B800253038580A0000005B486172644661753E
:1015C8006C745D0A000000005B4275734661756CBF
:1015D800745D0A005B55736167654661756C745D7F
:1015E8000A000000232D302B2000686C4C00656633
:1015F800674546470030313233343536373839415C
:101608004243444546003031323334353637383971
:071618006162636465660076
:10162000785634124C4D00200000000000000000ED
:1016300000000000010203040607080900A24A0492
:1016400080807F807F7F807F7F808080807E7C7FA6
:101650008281807F7E7E808081817D7D808180818E
:101660007F7D7E7F8182837F7B7C8282837F7B7D87
:101670007D7F808282847F787A7D8186827E837C72
:1016800078828483807A7F837D7A8188857C79756E
:101690007F8C8A8478787C7B8583848679817D6958
:1016A0007B94938975646A879A90897B6E6C718943
:1016B000978E86786F7079819091907E606C7F8F25
:1016C000958D7A676885988B787E8676647695A402
:1016D0008C7A785065999FAD853F66978688888417
:1016E0007C65807E809180987F4567A7A38C6F730F
:1016F000816B799692826E76887A7A738C99788AE1
:101700007D656F75A1BB81604C58A2AD9779625F12
:10171000869D7C787E8C917B505EB4B0836F5454F0
:101720008BBDA681584779A09C8B7A686F89697FA9
:10173000AD9A824F508FAB9097875451648CC5BD42
:101740007F3930869D9EA286866B49729E939697BE
:101750006A576D729DBB846E6C59738F989E896DAC
:101760007476617699A99A734452A8B18D836248C0
:101770007DB29F9069467596908D8469748E687469
:10178000A49F89584D90AE898E88575B6877BBC1FE
:10179000834338879C96967A9082497D9A78919770
:1017A0007264746E96A47C8C94633B669EC3AF6B2C
:1017B00066684160B7C2AE752E5D92918A94A3743B
:1017C0004F667EA29E8F82475080A0A99D7A677443
:1017D00071697C9791969171615866A2A8A4A15EE7
:1017E0004B5A4990D2C9A44928487CAFB6B3965009
:1017F000485472B0B3A280495683828BA195807001
:10180000666172999F9188716D5F6D9CA09D7C68E7
:10181000766A6297A6998A5369776C919B949470C3
:10182000665F729692988473766C79918A807881DB
:101830008F7169757F9F9F866F5B58719EC4BB7661
:101840003A31639EBCC6A867312F5E9CC3BE8E56DC
:101850003562AFA7929178787B6E7A837B8694937A
:101860008C7E6A5F656F84999B81655D8FAE877999
:101870007D7D8B81727671738C9C9D8E765F5662B6
:10188000758DA096765B68A7AC7E79757E917C732A
:101890007C6F758FA0A3876A5B55617896AC9F6A51
:1018A000536C97A99984867F665D68849AA29D93FC
:1018B00083695867777B7C7A84977E647994A28D5C
:1018C00078808F7C6262708CA5A59F8C6C5155735B
:1018D0008B927D6D6B79868BA8B074475E98C1A2A0
:1018E000644B587593B1BB9C6B45456E8E908B765F
:1018F0006B7C828FAF9F604D70A9BA8B5550677B10
:1019000093B3B9915A435A788793977C5E638BA4BB
:10191000B4994C4174A9C59D554B5D6D94B9C19A5C
:101920005D45526D7F969E80636D8BA1B485445456
:1019300085B3BC7C4D565F7AA6BCBB8944445D72BE
:1019400093A49B79555F86A9C08B47547EACB77A28
:10195000505D6582A8B8B27A3E47637F9A9E9874BC
:1019600052638CADBE86405182B1B97F545B5F74C7
:10197000A0BCBE894F3F486289C6C7865449659856
:10198000917093B5AD824D43667989A7B8B0825AFC
:1019900047435787BBC596614E58828A81A0BCB029
:1019A0007C443F617990AAB8AD7E564B4A5984B6C3
:1019B000BD966D585D7E81799FC0B67F413A617951
:1019C0008EAABAAE815A4B495780B4BE9A715C5EFA
:1019D0007B7B739CC3BB8343395D758CABC1B68184
:1019E0005446475883B1BF996E5F61777575A5C935
:1019F000B87B3D385D7790B1C2AF7C54494B5C8475
:101A0000B2BA936E60637C7975A2C5B37C423C5ECA
:101A1000758EB0C2AD7B564A4D5D82AEB49173698E
:101A20006B7D746D98C1B984493D5A7088ADC3B25D
:101A3000815B4C4A587DACB49375696B7C736E992D
:101A4000C1B985493C596F89ADC4B6845C4B4555D5
:101A50007EABB693756F6F7A706A97C1BA894E3F45
:101A6000576B86AAC1B78A634E445278A5B1957A5E
:101A7000747279706994BFBA8A5140586983A9C158
:101A8000B88D6651454D729FAE96807E79786760BD
:101A900090BEBD93584254627DA6C1BB946B534423
:101AA000496D9CAD97837F7B7767618FBCBC955AEE
:101AB0004152617DA6C0BC956D5444486B97A89A6D
:101AC00087837E7A675C87B9BE9A5E43546079A348
:101AD000BEBD99715846466590A79A89857F7B67F8
:101AE0005C87B6BD9B6044535F77A1BDBD9B745AB4
:101AF0004644628FA597888A8881645788B9BE94C6
:101B00005946586479A0BBBA97735D4C496189A066
:101B100096888A8A85665786B7BA915A4A5A6377F1
:101B2000A0BDBA97735F4E4B648A9C90868C8C885C
:101B3000745A77A8B39D6C505A5E6E95B3BAA1855E
:101B40006E5143537794938E9591866C5476ADBDC8
:101B5000A56F4851586E9BB6BEA47F6A514657790F
:101B6000918C87929793735373A9BCA26949586368
:101B70007194B0B8A17F6F604F536F8A8E858D9935
:101B80009A85576098B7AC7B4F55616584AABDAE06
:101B900089706052506A898D848790948B6C6A93A7
:101BA000ABA17E56576769809EAFAC917B6F5E5349
:101BB0005D76848387939993756285A7A98D5E521C
:101BC00062657696AAB19C827561535A72827D7F56
:101BD0008E99987D6986A9AA8A5E5361667891A4D8
:101BE000AA9788806C5E5D6A757280959D91706C15
:101BF00094B1A77F5656666A7C94A5A892837B6AA7
:101C00005E5C6B787680919C94757496ACA17B5BDE
:101C10005C646B7D91A19C8E8B8171676369696E39
:101C2000859B9D826E85A6AA8E6559656973899A82
:101C3000A3988884786861646D70758999998074B7
:101C400090AAA786615B65697487999D9089898050
:101C50007369676765728C9C9277779AB0A47B5999
:101C60005C676B798C9B9D8E87877C6E66656969E6
:101C7000758B9993787B9EB0A37B595C6669798D4F
:101C80009D9D8C8688807166676868768C9A8B7358
:101C90007FA3B49F735B62686B788B9B9589888AFE
:101CA00080726A69686A758A927F7691AFB390662E
:101CB0005F6A6B6E7B8F988E85888A7D6F6D6B688F
:101CC0006B798F8F77799BB4AA8161646E6C708118
:101CD00094978A848987796E6B68656E839387741D
:101CE00085A8B69F73616A6F6D7384969388878A9F
:101CF00085746B6A67697489957F748FADB08E68DF
:101D0000636F706F798B928B86898C806F6C69653D
:101D10006B7B8F8D767D9CB3A880636A71707480B5
:101D2000909084848B897C6F6C676771858F7D77D9
:101D30008FAAAD8E6D6E75706E75899287848A8B51
:101D400082746E69656C7D877B7791AEB1906B6AAA
:101D50007876717588958B81848883766C69666BDB
:101D60007B8A847582A1B5A27A66707773727D8E44
:101D70009084828A8A7E6D64656774868D7E788C95
:101D8000ABB3956F6A7575707283918B81858B8704
:101D9000796D67656D7D8A7F7485A3B39E7668745F
:101DA0007773737F8D887E868F8E8070666167768D
:101DB000847D7688A5B49D766C787C76717C8A89E2
:101DC00080848D8F816E65626977837D7583A2B50E
:101DD000A17C6C757D777179878780828C91867301
:101DE00067616673817F757C98B4AC866C737E7B0B
:101DF0007174838A8382898D85766C656671808033
:101E0000767C95AEAA886F747B7B777884877E7F9B
:101E1000888F88786E66666D7B7D747E99AFA987A2
:101E20006F757F7E787680868282868984796F67F7
:101E300069727C7D747D98ACA88770747D7F7A7898
:101E40008084807F858B867B7168676E7A7C747DE9
:101E500097ADA98870757E7F7A7A82857F7D838829
:101E6000857D746B676D7B7E767D95A9A68871767E
:101E70007E7F7B7A81857E7B8289877E746C696DAB
:101E8000797E76788EA7AC9274737E817C767E851F
:101E9000807A7E888981786E6A6D777C74788EA569
:101EA000A99074747E817D79818680797C85888211
:101EB00078706A6C777972788FA7AB9173737F8330
:101EC0007F7981867D777C878B82766D6B6F797960
:101ED000707991A9A88B717582847F7B83867D76CA
:101EE0007C86887F766F6E707A79707990A9A98CDC
:101EF00071738085817D83857B757B878A7F746E16
:101F00006E727B766E7C95ACA6846D748388827EBF
:101F1000848478747C888B7E726C6C727E7B717C1E
:101F200091A8A484717783857F7C85867A747B876A
:101F3000897F736D6E747B74718099AA9E7F707AAD
:101F40008585807E858277767F89877B716E7075C7
:101F5000776E7389A2AB9477717E86837F82867E4B
:101F60007678838A85796D6A6F7A7B6E748CA6AA7F
:101F70008C72748186838186877B7579848981756B
:101F80006C6B717B746B7D97ACA37F6D788486835B
:101F9000828A8677747A86887D736C6D77807168A3
:101FA0007EA0B69E72677B89867D828F8979757ED9
:101FB00088827469656E808975697FA4BA9D6C6436
:101FC0007A868178839189787887908372635E6955
:101FD0007B85736A8BB5C5A0645466737A8094A8B8
:101FE0009E867A7974665F606C808E90756689B51E
:101FF000C6A162505F6B747D96AB9E8882817C68BF
:102000005A596078919C836D89B3C29757495C6C2B
:102010007885A0B5A58A7A6F695C5B667084989CA8
:10202000806985AFBE95564A5D6A7480A1B9A68D58
:102030007D746956576071899FA17B678AB7BC869A
:102040004C4A5C6B798FB5C1A280695F58586A7938
:1020500086959C8C696C98BBB273474E5F707F9A73
:10206000BDBA9677645E55576C8296A19F7C5D7071
:102070009FBEA1634B58667486ACC9B08160525252
:10208000596E85939B9D9165567DAEC08E534C5A7B
:10209000697A93BCC8A375584D4D5A7792A3A6A1EF
:1020A000844D4A83BDC587504E5C687BA3CDC792E3
:1020B0005E4848556D8A9B9F9A967D4D528BBEBF58
:1020C000804C4D5F7082A5C8BE8D5D4C4F566A87AF
:1020D000969E9D9A83504F85BBC18350515E687C0C
:1020E000A8D1C48A58464A557092A2A2978E7242CD
:1020F0005198CFC577454D5F6A80ADD4BD805548B6
:102100004F5B77969D9A929077435599D0C77646C4
:102110004E5B6681B1D6BA7C54484E5B79989F9BE2
:102120009188694162AAD7BD6B424C5A6885B7D580
:10213000B67953474E5C7C9EA19A8B81664467AB0F
:10214000D9BF6E4348536589BDDBB4754E424D61BE
:1021500084A1A398877B5F4471B9DCB4603D4B5B7D
:102160006A8CBDD8B1734D434E6386A2A196857E1D
:10217000634770B4DBB5633E495A698BC0D7B0740E
:1021800050474E6083A0A295867E624770B7DAB250
:102190005F3C4B5C6B8CC0D5AE7451474D5F83A3E5
:1021A000A194888163466EB3D8B463404B58698D5F
:1021B000C3D8AD7250464C6084A2A195887F644814
:1021C00070B5D6B15F3C4D5E6E8EBDD6AF6F4D47DC
:1021D000506282A3A190858478505E9ECDC17440E8
:1021E0004B5C6681B0D6BE81564448597CA1A79706
:1021F000887F74525898CFC77D42435C697EAAD1CC
:10220000C38758474B5A739AA89789807E62537F39
:10221000BBD09852415466779AC7CD99664C4753C4
:10222000688DA89E8F827F6B4D70B0CFAD61414F9E
:102230005B6D90C3D5A97151444A6188A79F93856E
:102240007C684E72B2D2B0653E4B5B6D91C1D6AB2D
:102250007150434D6284A5A090837B765563A4CDD5
:10226000BC743F475E6B84AED2BA7F56484C5D7AF1
:102270009DA28F857E81655888BDC8904F44596660
:10228000779CC8CA96664A45526B94AA9B897B7B09
:1022900076586CA8C9B16B404B636E87B2CFB67CE1
:1022A00057474C5F7BA0A38F837A826C5781B7C955
:1022B0009C574054647097C5CEA26B4E4851678CB2
:1022C000A698857E81805F6299C2BA7B4848626E1B
:1022D0007DA6C6BC8C614E4C587395A38F7F8087BA
:1022E000875E5E9AC3B97A474A61677BACCDBD878A
:1022F0005E4D4D55719AA691817E83805B64A2C22A
:10230000AE72495265667BACCDB8855F4E4B547357
:102310009EA790837F85805C649DC1B2764A52649B
:10232000647CAECDB7835F4F4C51749EA490828283
:10233000877E58629BC0B2774D55656378ACCCB749
:1023400087614D464E77A2A58D8285867F5C639D11
:10235000BFB0764B52676779A9CBB9896251484AB9
:102360006F9BA8948186857E635E90B8B387594F32
:102370005F63739DC7C0956E544A456095AB9C835F
:102380008388846F557AB2BF9C664C565C6790C157
:10239000CDA5775C49435684A6A086808D897E5B57
:1023A0005E98BAB186594D555D7BAACBBF91674DFA
:1023B00042486C9AAA967A808B8D835E6496B6ADFD
:1023C000845652595C7CADCBB6906C4B3C4975A0A1
:1023D000A8918087837E7E67739BAAA58056545CF4
:1023E0006684A9C1AF8C684A4353789FA38E8189C4
:1023F0008B857D5E699BB1A97E56525A6785A9BEC1
:10240000B0916D493E53769AA4938B897C7C806908
:102410006E8EA4AE8B5B4D5A6C85A5B4AA936F5299
:10242000475376979C90908E7F7B7E676D90A3AF8D
:102430008E5C505A6780A3B7B0946D52495475941E
:102440009B91898D867C816D64849DAD9D6B4F4F82
:10245000627C99B6B5A17B56464B6B8D9E958B855C
:1024600086838A80596A99AFAB7D504F5E6E89AA88
:10247000BDB08F644140587D9BA0968A8382818E37
:10248000745279A2B4A1684C55647193B8BCA47E0F
:1024900055424C6689A1988C8C8581848C705976C4
:1024A00099B7A46848596A788EA9BAA47E55455050
:1024B00066899F9C8E89848383866F5A7596B5A59D
:1024C0006B4D566B7988A8BEAA7F52435468899C8D
:1024D0009B9384808586907450688EB7B67D4E51EC
:1024E000616B82A5C1BA8A54414C6484979B978BD7
:1024F0007D828B878B624D719BBFA76A4E5A667037
:102500008CB2C2A7754C475969899A999489848A73
:1025100089847E524781B9C798584D5F666F90C0D5
:10252000C19A69494F5F6E8B9C988F89898A857B98
:1025300078524784B8CE9C55505E606C91C3C99860
:102540006348505B6B8D9FA08F888E88796E816CFD
:102550004370B3CEB3644257616884B2C9AD784E5C
:102560004B5D677F9A9E99888089867B73816A3FDD
:1025700070B6D0B26547595E6287BAC8A5765A531D
:10258000525F829D9D9293927F6F70708C70497E96
:10259000B7CAA36149535E6987B9CBA776544C5B30
:1025A000667C9BA1948E8681766E7484915A4E923D
:1025B000BEC49059555450659DD1C1967154494B34
:1025C0006491AA9C9C9B7F71606B7E908E596AA1DE
:1025D000BBB273454B586989B5CDB37C504854673D
:1025E0007E99A2948B8A837D6D717A808E66629AC1
:1025F000B7B3804D4E59647B9FC8BF916E4C465116
:102600006C9EAA9E938580756A667A908B906769A6
:102610009B9DA28151545B678FAEC3B488604246D4
:1026200058789FA79C9A8C7F7061687990939C756D
:10263000528297A39D6452565980A4C5C99A683C9A
:10264000345678A0AFA2968771676572859D938F87
:10265000994D4776A2C99453565A6280A2CBC28A3A
:10266000593D485F7CA4A59E9682716E64708498E3
:102670009A908B49487BA4CE9B545056667D9FD040
:10268000C488553B4A6B7B9AA89C957C736E687C8A
:102690008D95967F81723763ACC7BF6D40525B6B7F
:1026A0008FB3CCAF704F4A5972879A9F8D87847EC3
:1026B0007A72767F828983898F4E4792BEC7904413
:1026C000475A6083A9D2C37D554451687799A29433
:1026D0008D847E7B75777D817E8982847E4973AE11
:1026E000B7A86940545B689DC2CAA8684D4E5E7227
:1026F0008297948B90897E8377757A7C7A8188879C
:102700008F5553A3BAAF7F454E60648AB9C6B07D7A
:10271000504A566B7E979D9088847D8384797D7B1B
:102720007771868790844873B1B09A65485C626F10
:10273000A0C1BD98655858566C8A9D94848A93852B
:102740007E726F7E787883978787774B7EA4A6A169
:102750006246626D7EA1B5B0946B525561738797E6
:1027600093858E93867B73727D7C737A8D90828F36
:102770006A548BA0A2945C50656585ADB9AB846941
:102780005751636E869C93939F8F7D6D617082829B
:102790007D838F9D798278447198B0B3724A636764
:1027A0006E93AEB49F7158595E6D829A9789888BEB
:1027B0008786746E7C7B75768399A1757D76446E71
:1027C0009EB3B36D43626B7496B0B89865576568F5
:1027D0006D758E99889996817A69678183808B87D8
:1027E0008280798999524082B0C6985D6061516C4F
:1027F000A0BDBA8B686D5C5569809196909E997F5B
:1028000070646D7E7F81908A84807585974F428C3D
:10281000B1C1985D64654C699AC2BC856E6D5F5CA0
:10282000607D96919394938F79696D746E7792948D
:102830009084867C7D6E3B6CB0BAB28356564B5406
:102840008AB6C7B982615A51557088979A95938A0A
:1028500089786F6D7173778B8E96868684767F49C3
:102860004D9FBBBA8D545959507AB0BEBC926A6123
:1028700050516B8593928E9898917E68666B6B7EB3
:10288000909A947B7B8F75697F546BA2A4B4A252FB
:102890004A575386B0B7BC945B55535D7891928983
:1028A0008A909295826867716E7B9293907F778D04
:1028B00087637D695492A5B0B46D4155526CA0B345
:1028C000C1AF74574C506A8696938A91938C8A75DF
:1028D0006A6D656F919896837C868265698D686A5A
:1028E00097B0BC87414864627EAAC9BD8E5F4A53D7
:1028F00058799292958488989084796D6D696B88E7
:10290000979783818581775C837F5C8CB0B5A0527B
:102910003F5E65769EBEC19B69534F58728A8F9207
:10292000868B9691887A6A70716D85908A897E8887
:1029300088726E6B9B775095BAA68A554670646E06
:10294000AEC3A7946D575E596E8D8C8B868792931C
:102950008F806B7269637D8C9790878C81726A6AB5
:102960009A734D99BBA389564B73696FA7BAA89701
:1029700069565F5D718D8D8A84869492917D6771B1
:10298000686B838B8F918887876C74748A7A487E92
:10299000BEB0956A466D6B629BBAA4997C60655F18
:1029A00062828E817E89979D99826A6E605F85942E
:1029B0008C8B878B8E6E7475877B467CBFAB926EDB
:1029C0004E706B589BC2A196796272685778897A6B
:1029D000849198A5967A716C5D637A8C90888D96B7
:1029E00096806A697C6F797B628AB4A3927B555F1B
:1029F00069628BB4A19A8874756352697C7F8B9CE1
:102A00009C9B907B737068657583898A949A948186
:102A10006D67756881815D88B0A99878505E6A6439
:102A20008CB3A89A8A726A604F6A877F859BA09C44
:102A30008F7C72736659748A8F8A97A0957A6465C1
:102A4000796F6E8C776F98B6A98E533E667375A1B9
:102A5000BBA69A7D5D625F56778B838D9A979B921A
:102A60007B6F755E5B7B86908F919B9878686877AB
:102A70006E6E8B77739EB0A28B5643687374A4B44A
:102A80009F9980626761546F88828C9E989C987829
:102A90006C6F5A6280898A8F939B997A66686E6E92
:102AA0006D928D678BB4A6896742607B6A8EBFA8E2
:102AB000968B696569525F898483989B9BA0836824
:102AC00070645A778C8889909599876C697075685D
:102AD00082976B75A8A7947B4F567A6D78B6B095A0
:102AE000906F63725B5981877E949D92998F717408
:102AF0006F586D8A87858C8F9593776B7673647228
:102B00009A816B96A598855A557E786D97B1959068
:102B10008069756B566C85808899949499827379D5
:102B2000675B7583848A8C939E8E6F70756F6573F7
:102B300099806D95A99B815C5679776C98B1968E3A
:102B4000816B72665972867B899A90969981777AA1
:102B5000605C76837F8A959A99826D717870637DC7
:102B60009E6E699AAA9A7F5C63826C699DAB8C8D1C
:102B70008372796459787E758C9B9299977E7C7864
:102B80005B627E7E7E8A9298947C727A7868648D8D
:102B900093647BA5A58D6E5A74846779A89E8A8BF1
:102BA0007A73735D667F787994978F988F7F806F43
:102BB0005A6E7D7C7C8D93978C7E7C80756467904B
:102BC000865982ADA58671607A7D6882AA94808BD1
:102BD0007B7574646981747794948B979181857403
:102BE0005A6D7B767B8D9499907A797F74676A921F
:102BF000865A7EAAA4867261797C6981AB927E88AE
:102C00007C7474696E8171789495889891838171D0
:102C10005B747F74798B93928B83857F736C6E7FEB
:102C2000905D6CA6A9817D75728072749BA1767D82
:102C3000847772796B7B7B70849B8C8999867F7F8C
:102C40006B667F76727E8D8C938681857F727271C2
:102C5000887E5782AF9C797F6E767A7383A78F7256
:102C600083807276796F7B72799097839295807D5D
:102C70007A68727F7775878C84898387857E717681
:102C80007987666196AC897880747B787C8EA17B2D
:102C900073827D71767877797481938F85948C8037
:102CA0007D746C787D76768C8A86878585837A714B
:102CB0007581845B74A2A07A7C7D767B79809999FA
:102CC000737B82756C787979777B86928A89938712
:102CD0007E7B72707D7C737C8C858688858184790F
:102CE000727A8E675992A58673857A7F7C808F9DD4
:102CF000806F7E7B71707B797C75818E91878D8DE5
:102D0000827F796D737E7B777F89878886878280D3
:102D10007975758C6A5A8FA8867486767D81808CC9
:102D20009E7C6F817C6F737E727A78839291858DA1
:102D30008D7F82786D75827573888980868A878495
:102D400081787C747A7E6076A498748080788181A2
:102D500082958F6C7484796C7D7C78797A8991887E
:102D6000829088837E73737F796D7F8C817E8B895F
:102D700085867F7A747782656799A57C78867A8163
:102D80007F7B909B776C847E6973837C7A78839059
:102D90008C818A8E848076737C7C72758A857E8530
:102DA000888585867B7D7982685A88A48874897F26
:102DB0007C7E828C9B83687A806D6981827A787F41
:102DC0008C9088868F887F7C75777B77717D8A80F1
:102DD00080888C8485827D7A7B815B6698A17A7AF3
:102DE000897C7F8086929A756B7F7A6473877A7804
:102DF00079838D8E868E91807D7875787D717388CC
:102E0000837C848A8787857E837A6F7E666594A0BB
:102E10007C788B7D7E84879094726B8279677688CC
:102E2000797578878F8A848F9180807A79797B70A1
:102E30007387837B8088888A888284796D7D6564C6
:102E400097A07B77897D8085899293716D82776663
:102E500076867A73778A8F8885929081817978795E
:102E6000797178857C798288888A8B8883747A7571
:102E70005C759B8F717E857E838A8E968D71737D46
:102E800072687881776F7B8F8C868B958D83817844
:102E9000787A766F77837C7B808B8A888B87827346
:102EA0007D745A769C8E7080848083878C988D7117
:102EB000757D7068797D7572808D88868F958A861C
:102EC0008278787A726E7C80797B858A898C8A8810
:102ED00082777B695E7F9886737F82828489939BE9
:102EE0008670787C6C697B7A717584898788919308
:102EF0008A87817C7C796F6E7E7E757D8989888CDE
:102F00008989807A7B626389957A75858482838AD0
:102F1000979A7C707C78676C7C78737A8688888ACC
:102F200092938A847E7E79766D727E7B777C8A8AA4
:102F300089FFFFFF8080808080808080807F7F800D
:102F4000808080808080807F7F7F808080807F7F86
:102F50007F80807F7F7F8080807F7F7F80807F7F7A
:102F60008080807F7E7E8080807F7E7E80817F7E6D
:102F70007F7F8182817F7D7E808282817F7E7E8055
:102F800082807E7F7F7F808081817F7D7E81828144
:102F9000807F7E7D7D808282807E7D7E7F8182803B
:102FA00083827B7A7B8386827F7C7C807E80837E2B
:102FB0007F7C7A7D8285837F7D7E7D8082807C7B25
:102FC0007B858C8983736D77838F8F857471777917
:102FD00085908C867D6A6F808F93887E72737880EF
:102FE00089888281787A8483847F80797783898EC7
:102FF000866C6D848D897E797F837B7A857B7989E8
:1030000087897D6C757E8992897771787B7A848FC8
:103010008E857872606B8EA4A68355718A7F816DD0
:103020007F91928972596F8EA5B371455C7B9FAA7F
:1030300078758567809578837F709189777E727FB8
:10304000817A908B737C8179897977888698726A86
:103050007F80907F778574878F728B6382AA7A7165
:103060005B6CB8995E7D648BB16964817EA7865B79
:10307000677EAD8E767C7A6A6A789A9D877C657564
:10308000857D8D9B8067677CA19B74646A818A962D
:103090006C7D97859858549BA087735D8E9C748334
:1030A000786A93826D978371846374ACB09A4B3461
:1030B0006F9797A291726C7185767C95958B615B09
:1030C000909885727A84777090977B6476A2A97EB7
:1030D0004C59879F885E8AB07A6F5579A09D757824
:1030E0006B6AAD998C684F54A4B097843A5FA08BFB
:1030F000939F6D78725588A08B948E68576F7FB2BE
:10310000A1555E7A939E9A6F66785F7B89AFBB6BA1
:103110003960A2B280418CA26B7A7090AB636886F2
:103120007D8F7C868F606E8A8FA0745D7286A59B72
:103130006A5F72788A9C9D7A506A9E97706D92A29F
:103140006D4F6995C796605F57789FA9A5722B5EF2
:10315000B6B382586894847B8B7C8B7473A17B4F4D
:10316000899F96894F5A89AB9C705D6C849F977735
:1031700071787A847E7B927E768E8167788690964F
:1031800072647A7383A89E6C547B96836E809A9641
:10319000624F7CA9AC7A6B67638296A5A55B317F91
:1031A000B7A774527599808389778171859D6E5E0A
:1031B000909A99724F6A8AAE966E646D859C9A74E5
:1031C0005D878E76767B8C877B8E9168647181A219
:1031D0009785755379938495827B7E61759B8873FF
:1031E0006E89A47F5A7A8985A87E5265869C8F69EC
:1031F00073AF8E63645895C48A6F616B8579A09FA5
:103200006A896744929E97AA774D6D7070ABAB74D4
:10321000656C8F8874908B88745F849286777383D3
:103220008E7767878C7C8594765A6B95B9A14E4EC4
:10323000898C7F9C8C57887F6296976C7D8B697E8A
:10324000A68E77635B84B1946E8F824B5F8BBFBF1A
:1032500045397D908D8D94918E5E2886BA97B27592
:103260003B6D877FAC9C6E6C6B6B7D9EA3896C65A0
:103270006581A38F88775D7A878295986D777D6267
:10328000799F826BA2936A5D5B9CAA79889D5E3769
:103290007799AF9E737E6D666896A47A8869619906
:1032A0008273A6956A6D74567DB8A990543B74A537
:1032B000B19A75545F80949F927665738487857EFA
:1032C0007F8C8271697E969B9E5E317BA1A5AF5CEF
:1032D0004F817D8BAB7D4F80947C968D516B8B9114
:1032E0009D7D637B807F89797D8E967C5475968EDB
:1032F0008C876860959E8E6D4B76948F7E768889DC
:10330000938C666D787E918E79959059647A7493DA
:10331000B9885D7168609CA19AA06351675C98C090
:103320009F82404581AAB79E664B6A957371B4B679
:1033300082653F3F9DC8AE835E3D729B89A19B66BF
:103340005D707B899AA889746562738A96A69E5877
:10335000325C9FB7AD7B646E50548FBFCA89616F7A
:103360004E64949BABA2784F486091B698735D51C0
:1033700083ADA28B74595B96BAAF8855445977A335
:10338000CBB57E5437447DABB49A714C5083BACAE6
:10339000874C496AA2B0977F62566B8FB4B38C603A
:1033A00042436E9EB4A07955527BB3C1835551718F
:1033B000A1A6908361557191B5B58A5E433F629A2B
:1033C000C2AA77594F74B0BD83565E7496A4918992
:1033D00074585F7EA4B9A07258434576B4B594760C
:1033E0004B5190BF9B6C707B8E86657F977F7C84F2
:1033F0008C998D77735A415C98B49F7E68628AA2DB
:10340000776B83969A805D6D89858A949A907D709A
:103410006856466EABB18B726B6D9E9B646B8D9CD8
:1034200094785B768C828D9C9A88706A6C4F5084FD
:10343000ACA483776779A9885D758E9C9A6C547269
:10344000848EA0A69E835F545954649CB5977E7366
:103450006086A56A6D979B9C75485F7F8DAEB7A20D
:10346000754F51647A747AA09A747E7A82A76F51EC
:103470008AA29A8A5B517081A0C0B8845248567360
:10348000827D93A07C747F7AA0864C76A2A08F69FF
:1034900051637A95BAC49959455162808D9A937552
:1034A000798C8189874F62A3B5A876424C6A88B42B
:1034B000CEC37E39314B708AB3C8854A57749BB6E8
:1034C000765081A29F855D58707B9ABEC299533217
:1034D00044647F9AC7B26349647EA6A9585B91A2EF
:1034E000A27E525A747DA3C6BC8A4527457294AB0E
:1034F000C99F51476481B0AD5A58889DA686555FD3
:103500007277A0C2BB8A4728467699B2C395504DC0
:103510006A83A89E556796A2A6774F62727DA5BC66
:10352000BC873F2A48769CBECC88373B6FA3B1A4AA
:103530006547769AB39E6656626E8FB6C5A75625C6
:10354000386892B9D0A551324D87B6B796524878AF
:10355000A2B48F66605F6F96BBC48C4534466EA084
:10356000C6C68140426A9FAFA56F4B7094AB986905
:1035700063686C8AABBDA262373E668AACC6AB6735
:1035800038477AAFB4A17C3E4C84B2BB8E61565DA5
:103590007297B8C08F4C2D4378A5BFBE8D48355962
:1035A00093BCB7A268304C85B8C28F66585B6E8AF0
:1035B000B8C48E4F2F497DA1BEBB894A3A5C90B6F4
:1035C000B49378513E6EA1C2B8774D4C5C7A99BDE8
:1035D000C08D492B4A82A9BDB9894D39578CB2B7E4
:1035E0009B81603A5A93B7C590544D536B8EB7C8C0
:1035F0009D5A2E3F7CA4BBB687543D5589B7BEA2C9
:103600007456444F86B3D0B1623C426187A1C2C2B6
:10361000844228518FB3B9A67F56435F8EACB19DCB
:103620007A595E646991B0BC9F5B3E4B6C8A9AB6D6
:10363000B9935A334A7D9BAFA98967535E7F9EA792
:10364000A18C6749617681A2ADAB8F5A3E507997C4
:103650009EA09F9275534E6A899DA0938171656A61
:1036600082979B90826C5B70797E99A2A9935E444D
:1036700051769399A2A99772484A6C8B9F9F927D2D
:10368000746F76818A8B8A80746D738B7F828F9939
:103690009B7655506688989CA29D895F455774908B
:1036A0009F9C9C8F725F6077848F9594866F606C0F
:1036B0008D85848C959C7B564D678B9BA1A29681B2
:1036C0005C465A7998A6A3977C685C697E8E9C9527
:1036D000897768656E81A39D837870838573676A37
:1036E00084989A918588785D5965829CA2958C7A98
:1036F0006E6B6F7D84908E8982776D6F76929E81DE
:103700007872868F79656079969D979186785C52FC
:103710006483A3A9967D707072787F8A9288807A7C
:1037200071757C848795926C666A8AA9906D5766DC
:103730008D9F9C8A858467545A7BA4A68C75708063
:1037400088837778828481837E78817F858E7D7E71
:1037500085635F7095C0AE7542426F97AFA5898350
:1037600075655C63829C9A817583909079636D81A5
:1037700091928676757976808D9088896A57647B78
:10378000AFC09F6A3E497297A69E92877C69595D39
:1037900078929D928382878B7D696979898D867FF6
:1037A0007D80797E8483868E7D5F616898C1B07EDE
:1037B0004A42638BA49F9A8C77705D5E768B97925A
:1037C000827D8894887568687A8487888B8A847EED
:1037D00077737A7D81877B737184A4AF9965404349
:1037E0006696B4B09A826861696E74838F93938988
:1037F000828580767270767E8586888D8A887A6DDD
:103800006C757F848788837C82909B8A684E506E1B
:1038100098B3B098796A646771747C8892958C8249
:103820008084817A7070787F8384888E8F88786EA8
:103830006D747D828686817D8596A08C6746466CF8
:103840009BB9B79A7865616871787A839297918409
:103850007E80807B726F7881868583878B8C837472
:103860006B6A74838A8F897B7E86999779574559CD
:1038700085AFBEA883685C6570787E80878E918CEA
:10388000858483857E706A6A76858F939089827835
:10389000726E72777F82919080807C8E9682614971
:1038A0005379A6C4B88F67505B6F7F827D7C83910C
:1038B000989189807D7E786F696C788A96968F82E0
:1038C0007776777678757C829091847E76889488F6
:1038D0006D5256729CBCB492674F5C7689887C723C
:1038E00075879A9F948173757B7D7A706D768693C8
:1038F000958F847D78757275777D8293907F7B75C7
:1039000088978A6F5353709ABCB6946A505B7185DE
:10391000897E75768696999583797B7A7A746D6FB0
:103920007C8B9291887F7C7E7E7A73707580989371
:1039300087766E8593927859546B96B7B697674E93
:1039400059738C907F6E6E8297A49C83747076817D
:103950007E746E727E8C938F857F7C7E7C77727195
:103960007C8A9A8E7B6C6B879A987E5C546891B542
:10397000B395684D5873909583726D7D929F9B852A
:10398000756F7782847D736F76828C8F8C86817C55
:103990007B7774757B888F8B7C6D6E7E97A191721F
:1039A0005859779EB0A37E5C5264849693806E6F64
:1039B0007E929891857A7B7F8079706D73808A8FF3
:1039C0008D8782807F7A767579858C86776D728710
:1039D0009FA28966515E83A9B49A6E4E4F7195A3DA
:1039E00092715D6382A0ACA0826A6472868C8271DF
:1039F000676F81939991847B7A7D7F7C76757B84D8
:103A000088847770788AA0A28C6B555C7B9CAA997D
:103A1000765A59728F9D917663667D96A39C8673C4
:103A20006D7583898171676C7D909B958676727ABE
:103A3000858A83766D6E7A888D897F787B88949766
:103A400089726061748C9C988570666D808F90829D
:103A5000716B7386979B918073727A82847D747088
:103A600075818D928C8278767C8488847A716F7669
:103A7000828B8D877F7C7F878B877C706D72808C3B
:103A8000908A7D726F76818A898076737A86929425
:103A90008D807573798084807973757E89908E8529
:103AA0007B75788087877F7671747E878B88827E2E
:103AB0007F84888780756F727C898F8B8075717623
:103AC00080888780777479848E918D837A76797EE9
:103AD000817F7B77777C838B8D898178767A8187EC
:103AE000867E7671767F878B8884807F80807F7DDD
:103AF0007D7E80817F7C7B7B7E8182807C7A7C80E6
:103B000086888784817F7F8182807C78777A7F83B3
:103B100085837F7D7E828585817A75777D858885A1
:103B20007E79777B82888B88847D7877797D84879E
:103B300087827B7675787F8486837D7A7A80878C8E
:103B40008B857E79797C8081807B79797F86888678
:103B5000827B7B7D7F8685847E7673737B868D8F6B
:103B6000897D767479828889857D78757980868962
:103B700086817C7B7C807F7F7B79797C8185868454
:103B80008382838485827E7875767A7E8285858538
:103B900082807F808182817F7B797A7B7E80808238
:103BA000838485838281807E7D7B7A7C7F82818015
:103BB0007D7C7F84888A857E7774777B8185878505
:103BC000817E7D7F848787837D7774767B80817F0C
:103BD0007B7A7C82888B8D8B857E79797C7C7C7AE4
:103BE000797A7D8286888784807E7D7F81817F7BD4
:103BF0007777797E83858684828081828383817CC6
:103C00007877777B7F8384848280808183848380BC
:103C10007C78787A7E828383817F7E7F82858683AB
:103C20007E7A77797C808383817E7DFF808080802F
:103C3000807F807F807F80807F80807F80807F808A
:103C4000807F807F807F807F80807F807F807F807B
:103C5000807F807F807F80807F807F7F807F807F6C
:103C60007F807F807F807F807F80807F807F807F5C
:103C7000807F807F80807F807F8080807F807F804A
:103C80007F807F807F8080807F807F807F807F803B
:103C90007F807F807F807F80807F807F80807F802B
:103CA0007F807F808080807F80807F807F80807F1A
:103CB00080807F807F8080807F807F807F807F800A
:103CC0007F807F80807F80808080808080808080F7
:103CD000808080807F8080807F8080807F7F7F7FEA
:103CE0007F7F7F7F7F7F807F8080808080808080DB
:103CF00080808080808080808080807F7F7F7F7FC9
:103D00007F7F7F7F7F7F7F7F7F7F7F7F7F7F8080C1
:103D100080808080808080807F80807F7F7F7F7FA9
:103D20007F7F7F7F7F7F7F7F7F7F7F7F7F7F7F7FA3
:103D30007F7F7F8080807F7F807F7F7F7F8080808C
:103D40007F7F7F7F7F8080807F7F7F7F7F807F7F7F
:103D50007F80807F7F80807F7F7F7F7F808080806B
:103D60008080808080808080808080808080808053
:103D70007F7F80807F7F80807F7F80808080808049
:103D800080808080808080808080807F7F80807F36
:103D90007F7F7F7F7F7F7F7F7F7F7F7F7F7F7F7F33
:103DA0007F7F7F807F7F7F80808080807F7F80801B
:103DB000808080807F7F80807F8080807F7F808008
:103DC000807F807F7F807F7F7F7F7F7F7F7F7F7F00
:103DD0007F7F7F80807F807F7F7F7F7F7F7F7F7FF0
:103DE0007F807F7F808080808080808080807F7FD8
:103DF00080807F7F7F7F7F80807F7F8080807F7FCC
:103E00007F808080808080808080808080808080B3
:103E10008080808080808080808080808080807FA3
:103E20008080808080808080808080808080808092
:103E30007F7F7F7F7F7F7F7F7F7F7F7F7F7F7F7F92
:103E40007F7F7F7F7F807F7F7F7F7F7F7F7F7F7F81
:103E5000808080807F8080807F8080807F807F7F67
:103E60007F7F807F80807F7F7F80808080807F7F5A
:103E70007F80807F7F8080807F8080808080808046
:103E80008080807F7F7F7F7F80807F7F7F7F7F7F3D
:103E90007F7F7F7F7F7F7F7F7F807F7F80807F7F2F
:103EA0007F7F7F7F7F7F7F7F7F7F7F7F7F7F808020
:103EB0008080808080808080808080808080807F03
:103EC000807F7F7F80807F7F8080808080808080F7
:103ED0008080808080808080807F7F807F7F8080E6
:103EE000807F7F807F7F7F808080807F7F7F7F7FDC
:103EF0007F7F7F7F7F7F7F80807F807F7F7F807FCE
:103F00007F7F80808080807F7F80807F80807F7FB8
:103F10007F7F7F7F7F7F807F7F7F7F7F7F7F7F7FB0
:103F20007F808080808080808080807F7F80807F95
:103F30007F8080807F80807F7F807F7F7F807F7F8A
:103F40007F7F7F7F7F7F7F7F7F7F80807F7F80807D
:103F5000808080808080808080807F80807F7F7F65
:103F60007F7F7F7F7F7F7F7F7F7F7F7F7F8080805E
:103F70008080808080807F80808080808080808042
:103F80008080808080808080808080808080808031
:103F9000807F7F807F7F7F7F80807F7F7F7F7F7F2D
:103FA0007F807F7F7F7F807F7F7F7F7F7F7F7F7F1F
:103FB0007F7F7F7F7F7F7F7F7F7F7F7F7F7F7F8010
:103FC00080807F7F808080808080808080808080F3
:103FD00080808080807F80808080808080808080E2
:103FE00080807F8080807F807F7F7F80807F7F80D8
:103FF000807F7F80807F7F7F7F7F7F7F7F7F7F7FCE
:104000007F7F7F7F7F808080807F808080807F80B7
:104010008080808080808080807F7F8080808080A2
:10402000808080807F808080807F7F808080808093
:104030008080808080807F7F80808080807F7F7F85
:10404000807F7F7F7F7F7F7F7F7F7F7F7F7F7F7F7F
:104050007F7F7F7F7F7F7F80807F8080807F808069
:1040600080807F807F7F7F807F7F7F7F8080808058
:1040700080807F7F8080807F808080808080808043
:104080008080808080808080807F7F7F7F7F7F7F37
:104090007F7F7F7F807F7F7F80808080807F7F7F2A
:1040A00080807F7F7F80807F7F7F80807F7F7F7F1A
:1040B0007F8080808080807F7F80807F7F7F7F7F08
:1040C0007F7F7F7F7F7F7F7F7F7F7F807F7F8080FD
:1040D0007F8080807F7F80808080807F7F7F807FE7
:1040E0007F8080807F8080807F8080807F80807FD5
:1040F0007F7F8080808080807F80808080808080C3
:104100007F7F7F7F7F7F7F7F7F7F80807F808080BA
:1041100080807F7F7F7F7F7F7F7F807F7F80807FAA
:104120007F80807F7F8080807F7F80808080808094
:1041300080808080808080808080808080807F7F81
:1041400080807F7F7F7F7F7F7F7F7F7F7F7F7F7F7D
:104150007F7F7F7F7F7F7F7F7F7F7F7F7F7F7F7F6F
:104160007F7F7F7F7F7F7F7F7F7F7F7F8080807F5C
:104170007F80807F7F80807F8080807F7F80807F46
:10418000808080808080808080807F7F7F80808032
:1041900080808080808080808080807F7F7F7F7F24
:1041A0007F7F7F7F7F807F7F7F7F7F7F7F8080801B
:1041B00080808080807F807F80807F7F7F807F8005
:1041C0008080808080807F7F80807F7F7F7F8080F5
:1041D000807F8080807F7F8080807F7F80807F7FE6
:1041E0007F7F7F7F7F7F7F7F8080808080808080D7
:1041F0008080807F7F7F7F7F7F7F7F7F807F7F7FCB
:10420000807F7F7F807F7F7F7F7F7F80807F7F7FBA
:104210007F7F7F7F808080808080808080808080A2
:10422000807F7F7F7F7F7F7F7F7F7F7F7F7F80809B
:1042300080807F8080807F7F7F7F7F808080808084
:10424000808080808080808080808080808080806E
:104250008080807F7F7F7F7F7F7F7F7F7F7F7F7F6B
:104260007F7F7F7F7F7F7F8080807F7F7F7F7F7F5B
:104270007F7F7F7F7F7F7F7F7F7F7F7F7F7F7F7F4E
:104280007F7F808080808080808080808080808030
:10429000808080808080808080808080808080801E
:1042A000807F7F8080807F80807F7F7F7F7F7F7F18
:1042B0007F7F7F7F7F7F7F7F7F7F7F7F7F7F7F7F0E
:1042C0007F7F7F7F7F7F7F7F7F8080807F7F8080F9
:1042D000807F7F8080807F808080808080808080E1
:1042E0008080808080808080808080808080807FCF
:1042F0007F80807F7F8080807F7F7F80807F8080C5
:1043000080807F7F7F7F7F7F7F7F7F7F7F7F7F7FBB
:104310007F7F7F7F807F7F7F7F80807F7F7F7F7FAA
:104320007F80808080807F7F7F807F808080808092
:104330007F7F7F7F808080807F7F7F7F80807F7F87
:104340007F7F7F7F7F7F80808080808080807F7F75
:104350007F7F7F7F7F7F80807F7F80807F7F808067
:10436000808080807F7F7F7F7F7F807F7F7F7F7F58
:104370007F7F80808080808080808080808080803F
:10438000807F8080807F7F807F7F7F807F80808034
:104390007F7F7F7F7F7F7F807F7F7F7F807F7F802A
:1043A0008080808080808080807F8080808080800E
:1043B0008080808080807F7F7F7F7F7F7F80807F05
:1043C0007F7F807F7F7F7F7F7F808080807F7F7FF8
:1043D0007F7F7F7F7F7F7F7F7F7F7F7F7F7F7F80EC
:1043E00080807F7F7F7F80807F7F8080807F8080D4
:1043F00080808080808080808080808080808080BD
:104400007F7F7F80807F7F8080807F7F7F808080B4
:1044100080808080807F7F7F807F7F7F7F7F7F7FA6
:104420007F7F7F7F7F7F7F7F7F7F808080807F7F98
:104430007F7F7F7F80807F7F80807F7F7F807F7F87
:104440007F808080808080808080807F808080806E
:1044500080808080807F7F7F808080807F7F7F7F63
:104460007F7F808080807F7F7F7F8080807F7F7F55
:104470007F7F8080807F7F7F80807F7F8080807F44
:104480007F7F7F808080807F807F7F8080807F7F34
:104490007F7F8080807F7F7F7F8080808080807F23
:1044A0007F808181807F7E7F818181807E7D7E8013
:1044B00080807F7F7E7E7F8081807E7E7E7F818206
:1044C000827F7E7E7F808181807F7F7F7E7E7E7EF9
:1044D0007F7E7E7E7F7F7E7E7F7F81828281807FE6
:1044E0007F808080818182827F7D7D7E80807F80D1
:1044F000807F7E7D7C7C7C7D8184837F7A76777DE6
:1045000084898B8A837A777B849098988F7F6C5F7D
:104510005D6679919FA2977F665452607483898902
:1045200086868D939799999B9D9C998D775C44374E
:104530003B4E6882939DA2A29E9A908783817E794A
:1045400071655E5F68798E9FA8A494837670747D90
:1045500083837B6E6667707E8C94948D8682808167
:1045600082807C7876777878767880888F908E8B4A
:10457000847F7B78777777787D8083888682807C5C
:104580007B7C7C7E7D766F6C717D909EA4A19280F9
:10459000706C727F898B816F615D63738494A2A557
:1045A0009C8A72667187969580645B606B7C90A133
:1045B000A1988E7F76787E8276696B75848D8983EB
:1045C000868C87827C7573787B787672717984911A
:1045D000A3B0AB987C62504B4F5F788891908A88EB
:1045E0008D909399A3A7ADA0785534242F4D6D9746
:1045F000B9C4BA9F775E5F7295AEAF987553464B5C
:104600005B6E82878884838993A0A9ACAA9F8B73F1
:10461000615F637374675B4E4F658199B6C4C2ADC9
:104620008F7060606A8395958B72594F525D70836D
:104630008E95969493959696928D8C90928C7F6998
:104640005039303C5A82A4B0A99A9198AABAB19034
:104650005E32263A6598B9BFAD8764545664758258
:104660008485898D8F918D8D8D909095948A8170A0
:104670005B4B46495E707B8796A3B9D0CAAE7E4C31
:104680002D304974A1BCB69E75524C56697F8B8AF9
:1046900088878B90949397989694928779695545DB
:1046A000404B5C7B8C93989EA0AEC0BDA9804F2FE1
:1046B0002D426F9CB5B5A1775A51596E8592908E57
:1046C00087868B8F91949391918D8378695446401E
:1046D0004B5D7C96A3A7A6A1A5B2B09D78492B2CD3
:1046E0004676A5BEBEA37959515A6F838C898785BA
:1046F000868C8F91949596959084766A584A414815
:104700005A7695A4A9A79F9CACB0A4865B352A3B9A
:104710006294B5C2B18A634F50647D8E908D878359
:10472000868B8F92939494918A7B6F5D4D41455512
:104730006E91A3ADAEA49BA7ABA38C653D2B355466
:1047400087AEC1BA976E544E5E788A8F8D88818607
:104750008B8F939494938F897E74634E413F4F6601
:104760008BA3ACB0A79DA4ADA6906B412B344F7C1E
:10477000A5BABCA27C6053586D818A8D8A82858BD4
:104780008F93979596928C81736550413C4D6688C6
:10479000A7AEAEA59695A7A99D7F512D2A3E679CF1
:1047A000BBC4B389635353647D898B8D87838A8CA3
:1047B00090969896948E81776956463E475F7A9B8D
:1047C000ADAFAD9E949DA7A4926B41282D4A7BA9C5
:1047D000C1C5A97C5E51576F848D8E8B808187887F
:1047E0008F9595979790857660463938527192AA41
:1047F000AEAAA09595A4A49B7B523631436C99B286
:10480000BEAD8967555568818B908F868085868C73
:1048100092929696938C7D674C3635496E8CACB6E9
:10482000AEA3938997A39F8E653B28335388B3CA61
:10483000C9A67657495571889090887D7F868A9061
:10484000939196949186755F4A3A40557690A8B5B3
:10485000AFA9958C90999183643E30365080B1D049
:10486000D9BD885A41415F7F8F92877877818D9635
:10487000999797968E84755F50434958748BA2B070
:10488000ADA5978D8A968F836645343D5580AEC918
:10489000CEB68A614C4B607B8C8F887B797E888C0E
:1048A0009394979B9588765F4D464A5E798F9FAD2E
:1048B000A59C92888795978F754F3430456FA5CA10
:1048C000DAC5966447405A7C90978D7B7477818CCB
:1048D00090949A9C958E75604F474E657B909B9DFA
:1048E000A297908C8B8F9C947B5C382E436690B9FA
:1048F000CCCDB3875C45446181949686736C74819A
:104900008F969EA5A3928063514C526578879093B1
:104910008C918D8E94979CA1916D4D2E3151769DE9
:10492000C2D0C4A37551444D6C8A96917D6B697A4F
:104930008C9B9FA1A0998877645452576575848C8D
:10494000939093918D8E8F959B977C5D3B2F4368C1
:104950008FB8CFCDB5885A3E3F5C829A9B856C60FC
:104960006E869AA7ADAB9E856D584E5763737E8455
:1049700083837F86959BA4A59C8D80644E45445778
:104980007691AFC5BDA986614D5469828F846F62EF
:10499000647893A3AFB2AA95796356596975777312
:1049A0006B6B718092AFBEB5A581645E6367716BFE
:1049B0005E606B82AAC6C9B68759404660818F88FF
:1049C0007768687992AAB9B7A6896C59575D6B71F7
:1049D00070706D728191A2BBB7A48B695B687373B1
:1049E0006F5A505E7AA0CCD5C0965F3C405D8095F2
:1049F0008A6F5D5E7396B1BEBAA5876D5F5F666EA6
:104A0000726B67686F7F919CAAB6A6947C63617194
:104A100076736A56556A87ADCFCDB0804F3B4D6EE9
:104A20008E967F62576281A7BCC0AE8E6F5E607249
:104A30007E80745F535C7392ACB1AFA08571686B7C
:104A40007D8D846D53465680ABCED7B27A4A3A52AA
:104A5000819E9D7A5044608DB3C3B2917063718C16
:104A60009E957148354A79A3B3A48871798CA1A227
:104A70008C705E5B5F71767B828E9DA9A58F77645B
:104A800063707A786F66697C919C9E9386858B9023
:104A900092846D5E5C62707D848A8A8B8A8F938F2C
:104AA000867C77767B736A696E7F9299989388800B
:104AB0007E7B787166626A778490908A8A8A8D9705
:104AC00096887A726B6F706A6C76848D8F82839011
:104AD000928D80747684867C6E646B81989A8C7FCC
:104AE0007C838A8275706E73787B7B828A8E8886DF
:104AF0008E8E87797F8B8575645C77958D797776D7
:104B00007F9190837A8A8A7F6E788480757482859B
:104B10008883817E7C7E7F8082807D7B777B878699
:104B20007E7D7B8587838080807F7E7C81807E7D8B
:104B30007E818182807C7D8184807C7C7F81807F7E
:104B4000808180808181818180807C7C81807D7C6E
:104B50007F7F7F7E8183807E8284827E7D7D807F59
:104B60007D7F80807F807F81827F808182807F7D4A
:104B70007C7F807F7E818280807E7F83817E7F803C
:104B80007F807E7E7F7E817F7D8285827E7D7E822C
:104B9000817E7D7E817F7C7D80828281827F7E7F1F
:104BA000807F7E808081807D7B7F8080817F7E7E14
:104BB000808283817F7E7F7F7F808080807F7F7FF8
:104BC0007F7F7F7F7F7F7F7F8080808080808080ED
:104BD0007F7F7F7F7F7F7F7F8080807F7F7F807FE1
:104BE0007F80818181807F7F80808080807F7F7EC9
:104BF0007E7F8080807F7F7F808181807F7F7F7FBD
:104C0000807F7F7F7F7F80808080808080807F7FAB
:104C10007F7F7F80807F7F807F7F7F7F7F7F7F7FA1
:104C2000807F7F7F7F7F7F7F7F7F7F7F7F7F807F92
:104C30007E7F8081807F7F7F80808181807F7F7E7B
:104C40007F7F80807F7F80808080808080807F7F6A
:104C5000808080807F8080808080808080807F8056
:104C6000807F7F7F8080807F7F7F8080807F7F7F4D
:104C70007F7F7F7F7F7F7F7F7F807F80807F7F7F41
:104C80007F7F7F7F7F7F7F8080808080808080802B
:104C90008080808080808080808080808080808014
:104CA000807F7F7F7F7F8080808080808080808009
:104CB000807F7F7F7F7F7F7F7F7F7F7F7F7F7F7F03
:104CC0007F7F7F7F7F7F7F7F7F7F80807F7F8080F0
:104CD0007F7F8080807F80807F7F808080807F7FDB
:104CE000808081807E7F7F7F7F7F81807F808080CA
:104CF0007F82807F7F7E807E7F82817E7E7F8081BB
:104D0000807D80807F7D7F80837E7D817F817E81AD
:104D10007D837D7F817E7F8082807E7F7B7F887A9E
:104D2000818086747B839D6169B672737677809685
:104D300084807F737C858B767C728889807980847F
:104D4000808684777786787F837D7185957B7A7F6F
:104D500082897D7D857780878C8F69728A7770796B
:104D600080868C898783787686817C7B7A7F7D8A32
:104D7000837A8F8B787C7A717680898C8274798142
:104D800076798D8F848785766F757A84898586821A
:104D900076747D7D7E8C8C7D7C7F75758287848327
:104DA000827D78797F888581868073758283818A08
:104DB0008E8478777B77768089837C82867E7D87F8
:104DC000897F7B7F7E797982867E7C8581787F82F0
:104DD0007F7B7F82827E818D827A7D817C717B8ADE
:104DE00081778A8479827D7E827F7D8679798B7CCA
:104DF0007C8688827A7A81806E8089818385847BB3
:104E00007F78768187827F857E86786C89907A77B5
:104E10008F897B6B76937A708993827975818D6B9C
:104E20007794857981827C8177808680847D7D7D81
:104E300080797D8383867A7E807E767C8E827E8872
:104E400087757C7E738280868B7E79868070808376
:104E50008980748B866D7389808489858E796D775E
:104E60008685847F767B78888A8185796A718F913F
:104E7000847F87886D6E7F8E8579838A776383913F
:104E80008681858B7E76707479879A8773697C9C1E
:104E900098767A7C596990A0967E737D816C789320
:104EA0008C7A788379787D8C9177708589797E7713
:104EB0007D917F72807C7A92827D9A7F6D798787DF
:104EC000564998CCAF8A6662625076B6A77E8179E1
:104ED00066666980937C6D86958F9B9C917C646FE0
:104EE000836A688F8D7A8B876A6A738EB0885D60FB
:104EF0005A76B1CAC0954C2B3E5B8ECCCFA06D428A
:104F000043688391917D6E77889CA8A0937A646DA5
:104F100077696B889089988A6560668CB390655BC9
:104F2000516CABCDCBA3502C445682C4D2B0784246
:104F30003C5E7C8C8E8379788295A3A3988374677A
:104F40005F6573838D8B939D8C645978837A7A899E
:104F50008D675390D1C689554A54546FAFD1B989E2
:104F6000604F4E5778938C7A7A8699A6A59E89656C
:104F7000555F6F7C7D84928E8A958D6E63767F748B
:104F80006B8195725F98CABC85514756556FB2D1F7
:104F9000B98A6050555C768E82747E90A1A3979AF0
:104FA0008C6252657B816E79A2957A98A47E56496F
:104FB00067847C86957978A5BBB37F3430566D9A2B
:104FC000CDCFAB723B395B7588948A7B7A89AAB660
:104FD0009C7A6A5E515F879589949B7D6E7385A4E8
:104FE0008444608C7D8D8E5876B1A7AF963F3B612F
:104FF0005F92D3C2A7813D365B6581A08979878A9C
:105000009FB7A07B634D5173858C9B998F8C756284
:10501000737D767E7D7B8E92948948348AC8C09E4B
:105020005C41626B82C2CEA4784430506A7C9C9D05
:1050300083818C9AABA1826A54496A8A8C999E8733
:1050400086886B667371818C7A879485947B2F4FE9
:10505000AECABC8638406F729DD6C497642D365E4A
:105060006E8DA791828384A3B2947A5F43587E8F1A
:105070009B998E8D87715F6474818F8D858E8582FB
:105080008D5B3470ADC4C1743A5A6877B5C8B091BD
:105090004D264562799FA08B8A7F88ADAB886C4F87
:1050A0004C6881999E93947C6A8072607C7C82A11A
:1050B0008A798B848673374AA5C5B8955D5C6C6226
:1050C00083BDC198673E37506D8EA6A38E80889AA7
:1050D0009E967F5B525C739A9182A49C746C606014
:1050E0007D7C85AB917182838A78354FA5C0B89855
:1050F0005D4E606994C7C39C65312E4D6E90A9A624
:105100009488848B9D967E6957596F889E9384926C
:105110008D776D676B7F7B80A1907A8B85876F2DF4
:1051200051A9C2BF9955515F5F94CDC39D632D3482
:10513000567196A9988D878598A08B765F52677D6A
:1051400090A3867D998474705C6A828097A6867528
:105150007A85925F2E5DA3D2CE82585F536298C249
:10516000C3934D35445B7E9AA09D8F7E899593882D
:1051700076635D6980929C8B78888D7564636D8B96
:10518000908A9D94737379826E4456A1DAC98A4ECF
:1051900045566B94C3C99A56313D5F80959F9B8F4E
:1051A000818797947F6D687070758794948B8181E7
:1051B0007B61607386939291967B5D71929A6B3856
:1051C00058B0DAB87650545B6897C7C5904E364CE5
:1051D000667D969C9992828B9889736A68747E7CAE
:1051E00088908D87837A766B687C938C8088897DA4
:1051F000727B899B6A315EB2DAC573384D616E9DF0
:10520000C5C59B51294169839B9C93908784959543
:105210007B6A68697881849391837B7C79786D72ED
:1052200085908782878475767E9197533A79C1D825
:10523000AA53405C627AAAC9BC833E32516F8A9CF1
:105240009B988F838A92816E6B6F787B8092928419
:105250007D7E7C756A6E8A968C83817C7172809863
:1052600093534382C3D1974A425F6A8AB4CAB775DF
:10527000342A4E79969E98958E868B907F6F6C69B6
:1052800076828A9490817E7B77716E788990898509
:1052900083806F7088A28946448BCECD8645486353
:1052A000718DB6C7AE682C335D819B9E9895887EC4
:1052B000888D8476666A7A878B8D89857F76717210
:1052C000747B868C8D887E78767C828F8E5D4A7B1F
:1052D000B7CDA6573D5B6C81A8C0BC853D2D4D76F2
:1052E000919B9D998B7A7D8C90837069717C828A69
:1052F0008E8F86736F6E7784858288857F7F7579C0
:105300008A968351508BBBBE8F554E636E8EB6BC52
:10531000A56A34395D7D979E9893857A88938A7AB9
:105320006C6A778184898C8C82756D6E7B858786AB
:1053300088827D77728698956E445FA0C3B57B4D59
:105340005668759BBCB792552F416686A1A0959073
:1053500081808F8E81746B6D7A7F868F8F877A6E56
:105360006D757F8C8E857C787879818A978C594B86
:1053700077ABC4A2624D5B6C8EADB8A9733A305264
:105380007FA1A6978E81767A86928E79666C8192BD
:105390008F8181817D766D7686857E7B7D87817725
:1053A0007D89907D606D97B1A0745960768898A4CE
:1053B000A0845A3F4A6D90A49E8E7D727987919009
:1053C000847773798187888282827D7C7771757911
:1053D00081877C7888938F72546C99B0B0855D62B8
:1053E000667395A7AC956042455F859EA0948373D4
:1053F0006E7D929A927E7176808381838789847A8A
:10540000726E7076797E858A8D877A7274788496CA
:105410009F9F8E6E575A708EA7A88F6C50465C82E5
:105420009EA69678686D839BA0907F736D74828A28
:105430008D8B80757372757F807C7971758C9A9372
:105440007E6A6C7E909E9E927B615E6F879A8F7C57
:10545000746B6F7C8083847D7A7B818F928D857D58
:105460007C7D7C7C7D83857C7D86857C70737F7E66
:10547000797D828A87797580898E8B84807B797724
:1054800078828E908672636B7A858F8D80776F714C
:10549000838E8E8C847E7C7A7D84848180807E79EC
:1054A0007B84878178777E7C797E848C897A737817
:1054B000828B8A85837E797777828D8E8572666FFF
:1054C0007C888E8780796F73808C908A7E797A7DD4
:1054D00082848483827E7775808B8A7A6F748087DA
:1054E00085828281797881898A867E797B7C7F82B8
:1054F00082807E7B7B80807C7C80848380808180B6
:105500007E7F8484827E7B7C7F82818181807B77A9
:105510007B868C8678737A84878381817D777A8293
:105520008787827C7A7C7E818384817E7A7A81827D
:105530007E7E7F81817E7E83817D7E7F8285837E6C
:105540007A7B818685807C7B7D7F8282807F7F7E67
:105550007F808083837F7C7B7E8384808082817F49
:105560007A7A808281817F7D7C7C7F81818080804E
:1055700081807F7F7F8284827F7D7D7F817E7C7F33
:1055800082847F797C85837E7A7A8185828081801E
:105590007F7D7B7E8486847D7A7D7F7E7F82828014
:1055A0007D7D7E80808182817F7E7E7F80838381FE
:1055B0007E7D7E7F7E808282807D7D7E8183817FF5
:1055C0007D7F827F7D8082827E7C7E8182807F7FE4
:1055D0007F7F7E7E80807E7F7E7F817E7E808082D8
:1055E000827E7E8080817F7D808180807F7F817FC1
:1055F0007E7F8080807F7F7F7F8080808080807FB3
:105600007F8080807F7F8082817D7E80807F7E7FA3
:1056100081807F7F8181807F7E80817F7F807F808E
:105620007F7E7F8180807F7F7F7F7F80807F807F84
:10563000808081817E7E7F8081807F7E7F80807F71
:105640007E80817F7E7E8080807E7E80807F818064
:1056500080818080807F8080807F7E7E7F7F7F8052
:105660007F7D7D8083827F7E7F8180807F8082803E
:105670007E7E7F82817F7E7E7E7F7F7F81807F7F37
:105680007E8082817F7F7F81807E7F7F80807F7F21
:105690007F7F7F807F7F7F7F7F7F7F8080807F8015
:1056A00080807F7F8081807F7F8081807E7E7F8001
:1056B000807E7F8080807F7F8181807F7F7F8080F0
:1056C000808080807F7F7E8081807F7E7E80807FE3
:1056D00080807F8080808180807F7E7F8080807FCF
:1056E0007F7F7F7F80807F7F7F80808080807F7FC3
:1056F0007F7F8080807F7F7F7F808080807F7F80B2
:105700008080807F7F7F7F8080808080807F7F809F
:1057100080807F7F8080807F7F7F7F7F807F7F7F93
:1057200080807F7F7F8080807F7F7F8080807F7F81
:105730007F7F7F7F7F80807F7F7F8080807F7F8073
:1057400080807F7F7F80808080807F7F7F80807F60
:105750007F808080808080808080807F7F8080804C
:105760007F7F8080807F7F7F8080807F7F7F7F8042
:10577000807F7F7F7F7F7F8080807F7F7F7F7F7F35
:105780007F7F80807F7F7F808080807F7F7F7F8022
:1057900080807F7F7F7F7F7F7F7F7F7F7F7F7F7F17
:1057A0007F7F8080808080807F7F808080808080FD
:1057B0007F808080807F7F7F7F7F80807F7F7F7FF3
:1057C00080808080808080808080807F807F8080DB
:1057D00080807F7F7F7F7F7F7F7F7F8080808080D2
:1057E0008080808080807F807F7F7F7F7F7F7F7FC2
:1057F0007F7F7F7F7F7F80808080808080808080AF
:10580000807F7F7F7F7F7F7F7F7F7F7F7F7F7F80A6
:1058100080808080808080808080808080807F7F8A
:10582000807F7F7F8080808080808080808080807B
:10583000808080807F7F7F8080807F7F7F7F7F7F71
:105840007F7F7F7F7F7F7F7F7F7F7F7F8080808064
:1058500080807F807F7F7F7F7F7F7F7F7F7F808053
:105860008080808080808080808080808080808038
:1058700080807F7F80807F7F7F80807F7F8080802F
:1058800080808080808080807F7F7F7F7F7F7F7F20
:105890007F807F7F7F7F7F7F80807F7F7F7F7F7F15
:1058A0007F7F7F7F7F7F807F7F7F7F80807F7F7F05
:1058B0007F808080808080808080808080808080E9
:1058C000807F7F7F80807F808080808080808080DC
:1058D0008080808080808080808080807F7F7F7FCC
:1058E0007F7F7F7F7F7F7F7F7F7F7F7F7F807F80C6
:1058F0008080807F7F7F7F7F7F7F7F7F7F7F807FB4
:105900007F7F807F7F808080808080808080807F9C
:105910007F80808080808080808080808080808088
:105920008080807F8080807F7F80807F7F7F7F7F7F
:105930007F7F7F808080807F80808080808080806B
:105940008080808080807F7F7F7F7F7F7F7F7F7F61
:105950007F7F7F7F7F7F7F7F7F7F7F808080808052
:10596000808080807F7F7F7F7F7F7F7F7F7F7F7F43
:105970007F7F7F7F808080808080807F807F7F7F2F
:105980007F7F7F7F7F7F807F807F8080808080801F
:1059900080808080808080807F807F7F7F7F7F7F0E
:1059A0007F7F7F7F7F7F7F7F7F7F80808080808001
:1059B0008080808080808080807F7F7F7F7F7F7FEE
:1059C0007F7F7F7F7F7F7F80807F808080807F7FE1
:1059D0007F80807F7F7F7F7F7F7F7F8080808080D0
:1059E0008080808080808080807F7F7F7F7F7F7FBE
:1059F0007F7F7F7F7F7F7F7F80807F8080808080B0
:105A00007F7F7F8080808080807F7F7F807F7F7F9F
:105A10007F7F7F7F7F7F7F80807F7F7F7F7F7F7F94
:105A20007F7F7F7F7F7F7F8080808080808080807D
:105A3000808080808080808080808080807F808067
:105A4000807F7F807F7F7F7F8080807F7F7F80805F
:105A50007F7F80807F7F7F7F7F7F7F7F7F7F7F7F54
:105A60007F7F7F7F7F7F7F7F7F7F7F7F7F7F7F8045
:105A7000807F7F7F80807F8080808080808080802A
:105A8000808080808080808080808080807F7F7F19
:105A90007F7F7F7F7F7F7F7F7F7F7F7F7F7F808014
:105AA0007F7F8080807F8080808080807F7F7F7FFD
:105AB0007F7F7F7F7F7F7F807F7F808080808080EF
:105AC0007F808080808080807F7F7F7F7F7F7F7FDF
