:020000040800F2
:100000000050002021020008270200082B020008EF
:100010009D020008A1020008E9020008000000009B
:100020000000000000000000000000003103000894
:10003000350300080000000039030008D10800085B
:100040004D0300084D0300084D0300084D03000850
:100050004D0300084D0300084D0300084D03000840
:100060004D0300084D0300084D0300084D03000830
:100070004D0300084D0300084D0300084D03000820
:100080004D0300084D0300084D0300084D03000810
:100090004D0300084D0300084D0300084D03000800
:1000A0004D0300084D0300084D0300084D030008F0
:1000B0004D0300084D0300084D0300084D030008E0
:1000C0004D0300084D0300084D0300084D030008D0
:1000D0004D0300084D0300084D0300084D030008C0
:1000E0004D0300084D0300084D0300080000000008
:1000F0000000000000000000000000000000000000
:1001000000000000000000005FF808F100B583B0B7
:1001100000F0AAF9304B314A1360314A1360314B79
:10012000314A32498B4204D21168196004330432D7
:10013000F7E72A4B1A682E4B9A4200D0FEE7284B6D
:100140001A682C4B9A42F9D1234B2B4A13602B4A45
:1001500013602B4B02E000221A600433294A9342B9
:10016000F9D3254B1B6813B9244B1B6803B1FEE779
:1001700000F086F9694601A800F022F9224C234BD1
:10018000E41AA4100025AC4214DC214C214BE41AE3
:10019000A4100025AC4213DC0099019800F0CEFBBE
:1001A00005461D4C1D4BE41AA410002C0EDC2846FD
:1001B00000F0E2F8154B53F8253098470135E2E797
:1001C000144B53F8253098470135E3E7013C134BB6
:1001D00053F824309847E8E7BABADECA0000002096
:1001E0008400002000000020E8860008880000202D
:1001F0007856341232547698880000202801002066
:10020000880000202C0100207803000878030008F3
:1002100078030008780300087803000878030008D2
:1002200008B5FFF773FF00BEFEE71EF0040F0CBF1A
:10023000EFF30880EFF309807146414A10472DE93A
:10024000F04182B004468846124B5E6B9F6B9D6AFC
:100250001B6B13F0020F03D00E4BDB6A002B0CDB81
:100260000D4800F0B5F8CDF800803B4632462946EF
:10027000204600F009F900BEFEE74BF6AB6100F046
:100280007DF90028ECD0034B4FF00042DA6202B057
:10029000BDE8F08100ED00E02813000800BEFEE795
:1002A0001EF0040F0CBFEFF30880EFF309807146D6
:1002B000244A10472DE9F04182B004468846084B95
:1002C0005E6B9F6B9D6A074800F082F8CDF8008056
:1002D0003B4632462946204600F0D6F800BEFEE7EF
:1002E00000ED00E0381300081EF0040F0CBFEFF320
:1002F0000880EFF309807146134A10472DE9F04159
:1003000082B004468846084B5E6B9F6B9D6A074827
:1003100000F05EF8CDF800803B4632462946204684
:1003200000F0B2F800BEFEE700ED00E04413000864
:1003300000BEFEE700BEFEE700BEFEE7704700001D
:100340003F020008B5020008FD02000800BEFEE7FB
:10035000E88600080000002088000020E8860008E9
:100360000000000000000000880000202C01002098
:08037000000000000000000085
:10037800FEE7000008B503460C4A12685AB10B4A5A
:100388001068033323F003030344094A934206D851
:10039800064A136008BD054A06491160EFE700F0F8
:1003A80001FB0C2303604FF0FF30F3E78C000020C3
:1003B800004C00202C01002001230360014B0B603E
:1003C800704700BF040000200FB400B583B004AB31
:1003D80053F8042B01938021064800F015FB0028F0
:1003E80003DD0146034800F037F803B05DF804EB7D
:1003F80004B07047940000202DE9F04385B004460E
:100408000F4643560BB10E461EE0042528462146EA
:10041800ABBE0446384605B0BDE8F08314F9011BAD
:1004280004AA1A4402F8101C0133AB42F6D304AAFA
:100438001344002203F8102C4FF00408E946404604
:100448004946ABBE8046761B002EE3D03546102EBB
:1004580028BF10250023E8E708B5FFF7CDFF08BD42
:1004680008B500F0FDF8024A024B9A6008BD00BFCB
:100478000000000800ED00E008B500F019F908BD1B
:10048800F8B504460D4617461E462748FFF79CFF59
:1004980021682648FFF798FF61682548FFF794FF11
:1004A800A1682448FFF790FFE1682348FFF78CFF15
:1004B80021692248FFF788FF61692148FFF784FF17
:1004C800A1692048FFF780FFE1691F48FFF77CFF1B
:1004D8001E48FFF779FF29461D48FFF775FF1D4C99
:1004E800E16A1D48FFF770FF216B1C48FFF76CFF9E
:1004F800E16B1B48FFF768FF15F0800F0AD115F470
:10050800004F0CD11748FFF75FFF06991648FFF711
:100518005BFFF8BD39461548FFF756FFEFE7314650
:100528001348FFF751FFEDE70C1200081C120008F2
:100538002C1200083C1200084C1200085C1200083B
:100548006C1200087C1200088C1200089C1200082B
:10055800A812000800ED00E0B8120008C812000850
:10056800D81200080813000810130008E812000841
:10057800F812000883691A888A4201D0002070475F
:100588000268033A012A03D80233836101207047C5
:100598000020704782B00023019300932C4A13680F
:1005A80043F4803313602A4B1B6803F40033009331
:1005B800019B01330193009B1BB9019BB3F5A06F0D
:1005C800F1D1234B1B6813F4003F06D0012300939D
:1005D800009B012B04D002B0704700230093F7E77B
:1005E8001C4B1A6842F010021A601A6822F00302C3
:1005F8001A601A6842F002021A60A3F580535A681A
:100608005A605A685A605A6842F480625A605A6856
:1006180022F47C125A605A6842F4E8125A601A6846
:1006280042F080721A600A4B1B6813F0007FFAD000
:10063800074B5A6822F003025A605A6842F00202D5
:100648005A60034B5B6803F00C03082BF9D1C2E72F
:10065800001002400020024008B5FFF79BFF08BDCC
:1006680008B5104B1A6842F001021A6059680E4A20
:100678000A405A601A6822F0847222F480321A60A2
:100688001A6822F480221A605A6822F4FE025A601C
:100698004FF41F029A60FFF7DFFF044B4FF0006230
:1006A8009A6008BD001002400000FFF800ED00E06D
:1006B8001F4B5B6803F00C03042B15D0082B17D0D5
:1006C8001BB11C4B1C4A1A6002E01A4B1A4A1A60EA
:1006D800174B5B68C3F30313184AD35CDAB21549A6
:1006E8000B68D3400B607047124B134A1A60EFE750
:1006F8000F4A53685268C3F38343023312F4803FAE
:100708000AD00B4A526812F4003F0BD00C4A02FB85
:1007180003F3084A1360DBE7094A02FB03F3054ABF
:100728001360D5E7044A02FB03F3024A1360CFE7DC
:10073800001002401C00002000127A000C0000206B
:1007480000093D0010B4012824D018B1022841D076
:1007580010BC7047072910D90F29F9D8A1F108044E
:10076800E4B2A4000F23A3402A48016821EA030346
:1007780002FA04F119430160EAE789000F2303FA3A
:1007880001F0254C236823EA000302FA01F119431A
:100798002160DDE7072910D90F29D9D8A1F1080070
:1007A800C0B280000F2383401C4C216821EA030358
:1007B80002FA00F119432160CAE789000F2303FAFE
:1007C80001F0174C236823EA000302FA01F11943E8
:1007D8002160BDE7072910D90F29B9D8A1F108036D
:1007E800DBB29B000F2098400E4C216821EA0000E4
:1007F80002FA03F101432160AAE789000F2303FAF3
:1008080001F0094C236823EA000302FA01F11943B5
:1008180021609DE70408014000080140040C0140E4
:10082800000C01400410014000100140034B4FF43C
:1008380080321A60043301221A60704700100240A7
:100848001F291CD801280BD010B1022810D07047DE
:10085800012303FA01F10A4A13680B431360704736
:10086800012303FA01F1074A13680B431360704729
:10087800012303FA01F1044A13680B43136070471C
:10088800141002401C10024018100240014B0022B4
:100898001A60704710E000E0084B1860043B1A68C3
:1008A80042F001021A60064A1160064A01211170DD
:1008B8001A6842F002021A60704700BF14E000E0B4
:1008C800140100201801002008B5094B1B785BB9FA
:1008D800084A136823F0020343F00103136000235E
:1008E8000432136004321360034B1B68984708BD39
:1008F8001801002010E000E0140100200A4A1388C3
:100908009BB20A49C95C0A4B1960138801339BB230
:10091800138013889BB247F26032934200D070472D
:10092800014B00221A80FAE71A010020541300082C
:100938000C08014008B5FFF779FF02210846FFF7C8
:100948007FFF022200210846FFF7FCFE0222012158
:100958000020FFF7F7FE022211460020FFF7F2FE03
:10096800022203210020FFF7EDFE022204210020CD
:10097800FFF7E8FE022205210020FFF7E3FE02222E
:1009880006210020FFF7DEFE022207210020FFF7E4
:10099800D9FEFFF77BFF02497D20FFF77DFFFEE7C9
:1009A80005090008014B1868704700BF20000020A7
:1009B80030B5141E05469BB0184605DA8B234FF058
:1009C800FF302B601BB030BD4FF40273ADF80C3014
:1009D8000CBF234604F1FF33029305934FF6FF73D0
:1009E80000910491ADF80E3002461E9B69462846D8
:1009F80000F072F8431CBCBF8B232B60002CE1D0A5
:100A08000022009B1A70DDE707B5009313460A46DB
:100A1800014603480068FFF7CBFF03B05DF804FB0D
:100A2800200000202DE9F0478E6882469E420C4641
:100A38009046994637D88A8912F4906F31D00223AC
:100A4800256809696F1A656905EB450595FBF3F596
:100A580009F101033B449D4238BF1D46530530D57B
:100A6800294600F035FB064650B90C234FF0FF30FD
:100A7800CAF80030A38943F04003A381BDE8F0879A
:100A88003A46216900F0B4FAA38923F4906343F04D
:100A98008003A38126613E4426604E466561ED1BB6
:100AA800A5604E4500D94E4632464146206800F0C2
:100AB800AAFAA36800209B1BA36023681E44266033
:100AC800DCE72A4600F05EFB06460028E2D12169F1
:100AD800504600F0B1FAC8E72DE9F04F9DB00393F6
:100AE8008B8980461D060C4616460FD50B696BB9D7
:100AF800402100F0EDFA2060206128B90C23C8F8E5
:100B080000304FF0FF30C7E04023636100230993B2
:100B180020238DF8293030234FF0010B8DF82A302F
:100B280037463D4615F8013B0BB1252B3ED1B7EBB7
:100B3800060A0BD05346324621464046FFF772FF5D
:100B4800013000F0A480099B534409933B78002BA3
:100B580000F09D8000234FF0FF32CDE90523049378
:100B680007938DF853301A932F46052217F8011B67
:100B78004F4800F02FFA049BD0B9D90644BF202271
:100B88008DF853201A0744BF2B228DF853202A785A
:100B98002A2A15D02F4600200A25079A394611F827
:100BA800013B303B092B4DD9B8B10FE02F46B8E7D0
:100BB8003F4A3D46801A0BFA00F018430490D3E7E9
:100BC800039A111D12680391002A01DB079204E0C1
:100BD800524243F00203079204933B782E2B0CD128
:100BE8007B782A2B33D1039B02371A1D1B6803928B
:100BF800002BB8BF4FF0FF3305932E4D03223978F1
:100C0800284600F0E7F938B14023401B03FA00F00A
:100C1800049B0137034304933978062226487E1C37
:100C28008DF8281000F0D6F9002838D0234B13BBD4
:100C3800039B073323F0070308330393099B4B44B3
:100C480009936DE705FB023201200F46A6E7002352
:100C58000A25194601370593384610F8012B303A12
:100C6800092A03D9002BC8D00591C6E705FB012145
:100C780001230746F0E703AB00932246104B04A973
:100C88004046AFF30080B0F1FF3F8146D6D1A3893B
:100C98005B063FF536AF09981DB0BDE8F08F03AB92
:100CA80000932246064B04A9404600F081F8EAE783
:100CB800B4860008BA860008BE8600080000000056
:100CC8002D0A00082DE9F04791461F468A680B69EE
:100CD80006469342B8BF1346C9F8003091F843203E
:100CE8000C46DDF8208012B10133C9F800302368C2
:100CF800990642BFD9F800300233C9F80030256898
:100D080015F0060507D104F1190AE368D9F800209F
:100D18009B1AAB4229DC94F843302268003318BF91
:100D2800012392062ED404F1430239463046C047C7
:100D3800013021D02368E56803F00603042B18BFAF
:100D48000025D9F800204FF0000908BFAD1AA368A4
:100D5800226908BF25EAE5759342C4BF9B1AED18BE
:100D68001A344D451AD1002008E00123524639466D
:100D78003046C047013003D14FF0FF30BDE8F0875F
:100D88000135C2E73020E11881F843005A1C94F875
:100D980045102244023382F84310C4E70123224657
:100DA80039463046C0470130E6D009F10109D8E795
:100DB8002DE9F04301F1430C0C46097E85B06E29FC
:100DC8001746064698460C9A00F0B38022D8632945
:100DD80036D00AD8002900F0B980582900F083805D
:100DE80004F1420584F8421032E0642901D06929EF
:100DF800F6D120681368050603F104012AD51B689B
:100E08001160002B03DA2D225B4284F843206F48DF
:100E18000A2239E0732900F09D8008D86F2920D074
:100E28007029DDD1236843F02003236003E075298E
:100E380017D07829D4D17823654884F8453055E00F
:100E4800136804F14205191D1B68116084F84230CB
:100E580001238CE01B6810F0400F116018BF1BB213
:100E6800CFE713682568181D1060280601D51B6890
:100E780002E06806FBD51B886F2914BF0A220822E6
:100E88005248002184F843106568002DA560C0F21F
:100E98009580216821F004012160002B3DD1002DAF
:100EA80040F08E806546082A0BD12368DB0708D5F9
:100EB800236962689A42DEBF302305F8013C05F1D8
:100EC800FF35ACEB05032361CDF800803B4603AA50
:100ED80021463046FFF7F6FE01304DD14FF0FF3086
:100EE80005B0BDE8F083394884F8451013682168D7
:100EF8001D1D1B6815600A060BD5CA0744BF41F0C3
:100F0800200121601BB9226822F0200222601022F1
:100F1800B7E74D0648BF9BB2EFE76546B3FBF2F172
:100F280002FB1133C35C05F8013D0B460029F5D1DE
:100F3800B9E713682568181D6169106028061B68E1
:100F480001D5196002E06A06FBD5198000236546C1
:100F58002361B9E71368191D11601D6862680021D3
:100F6800284600F037F808B1401B606063682361C9
:100F7800002384F84330A7E723692A4639463046D8
:100F8800C0470130AAD023689B0713D4E068039BAD
:100F98009842B8BF1846A3E701234A463946304667
:100FA800C04701309AD00135E368039A9B1AAB42D7
:100FB800F2DCEBE7002504F11909F5E7002BACD1C9
:100FC800037804F1420584F842306CE7C5860008CE
:100FD800D686000810B5C9B202449042034601D132
:100FE800002303E01C7801308C42F6D1184610BD6E
:100FF80010B5431E0A44914200D110BD11F8014BAF
:1010080003F8014FF7E7884210B501EB020307D850
:10101800421E99420AD011F8014B02F8014FF8E735
:101028008342F5D98118D21AD34200D110BD13F8E2
:10103800014D01F8014DF7E738B50546002943D0C1
:1010480051F8043C0C1F002BB8BFE41800F0D0F88E
:101058001E4A1368104633B9636014602846BDE819
:10106800384000F0C6B8A3420BD9216862189342F1
:1010780001BF1A685B685218226063600460EDE77C
:1010880013465A680AB1A242FAD919685818A042F8
:101098000BD120680144581882421960DED11068CB
:1010A8005268014419605A60D8E702D90C232B60B2
:1010B800D4E7206821188A4201BF116852680918CC
:1010C800216062605C60C9E738BD00BF1C01002078
:1010D80070B5CD1C25F0030508350C2D38BF0C253F
:1010E800002D064601DBA94203D90C2333600020FA
:1010F80070BD00F07DF8214A1468214691B9204C52
:1011080023681BB9304600F063F820602946304652
:1011180000F05EF8431C24D10C233046336000F005
:1011280068F8E4E70B685B1B18D40B2B0FD90B602E
:10113800CC18CD50304600F05CF804F10B00231DAC
:1011480020F00700C31AD3D05A42E250D0E74B68C8
:101158008C4216BF636013600C46EBE70C46496887
:10116800CCE7C41C24F00304A04205D0211A304661
:1011780000F02EF80130CFD02560DBE71C010020FD
:1011880020010020F8B5074614460E4621B9BDE8EF
:10119800F8401146FFF79CBF22B9FFF74DFF2546DF
:1011A8002846F8BD00F026F8A0420FD2214638465E
:1011B800FFF78EFF05460028F2D031462246FFF79A
:1011C80017FF31463846FFF737FFE9E73546E7E7C7
:1011D80038B50023054C054608462360FFF7CAF8D2
:1011E800431C02D1236803B12B6038BD24010020C1
:1011F8007047704751F8043C181F002BBCBF0B58B0
:10120800C0187047537461636B206672616D653AEC
:101218000A000000205230203D2020253038580A8E
:1012280000000000205231203D2020253038580A87
:1012380000000000205232203D2020253038580A76
:1012480000000000205233203D2020253038580A65
:101258000000000020523132203D20253038580A45
:1012680000000000204C52203D2020253038580A2C
:1012780000000000205043203D2020253038580A27
:101288000000000020505352203D20253038580AD5
:10129800000000004653522F4641523A0A0000000F
:1012A8002043465352203D2020253038580A00005C
:1012B8002048465352203D2020253038580A000047
:1012C8002044465352203D2020253038580A00003B
:1012D8002041465352203D2020253038580A00002E
:1012E800204D4D464152203D20253038580A0000F7
:1012F8002042464152203D2020253038580A00001F
:101308004D6973630A000000204C522F4558435F13
:1013180052455455524E3D20253038580A00000099
:101328005B486172644661756C745D0A0000000078
:101338005B4275734661756C745D0A005B55736139
:1013480067654661756C745D0A0000008682767672
:101358007A7D817E7D80858B8C89827D7D80858666
:1013680084817D7D7C7C7C787673777D828C8C888B
:10137800867B797574787A7C81898F94908A817953
:1013880079797C7C7F828789857D706B6F7A7F8A8B
:101398008A8D8E8B877E757174787F7F7E7C82873D
:1013A8009491897E76797E837E756E6C727F898A48
:1013B8008787888E8C83786F717F8C9590888180E1
:1013C8007C7B746C6A6E7F8D91908378706A6D7087
:1013D800757C8D989F9A87766E6F7D868580777BE2
:1013E8008D9CA39A86797377777167606B7982860B
:1013F800807A777E869090887E747375797C8285F2
:101408008E94968E837D7B81858584807F7E6F66B2
:1014180059667D93A8A08D77686868696B6E81911D
:10142800A5A6A1907E75717A818685837E7E787661
:1014380074747B7B7E8180919089816F6B6E7980DB
:1014480086817F8B939A998D7B7F8F9E9E86776707
:101458005C4B4B4D454C48596D7A7F787E90ABC6B6
:10146800CBBFBBC2BCB7A58C807280897C5437299E
:101478002414203242648299B0D2CCC4A28F8D88C1
:101488008DA6C9E4E3C09E744F3E4049504B434883
:10149800515963586776909F9A9884849ABFD5DE8D
:1014A800CDB99F7A6D666E736E777570624F3E35F3
:1014B800383D48557B97B0C6B6B39D8B89848485E3
:1014C8008BA0B8C0C2B3A38159392D3E4F656D6456
:1014D8005A444344556C8299A3C2D2DED7C4AE990C
:1014E8008B99A19B8F6F5C493E41404246414E61BA
:1014F800737A7A6F707A94C0DBEEDFC4B0938D890B
:101508007C79696B6E727A68564A41484F5E6163AE
:101518006C779DB5C3C6AFA39B9BA295846C646290
:101528006D6D6C6A5B728395A197897C6D736E692A
:101538006967717580919EA5A3AAAC9F927D695B2E
:10154800585B686A6963677992A4AA9F92898685BD
:1015580081806E655D6B7DA0B2B39F76645B6C7CA9
:101568008A7E6A53505E7482938F8B9C94A4A19F49
:1015780096877C79767675746960737D9493856DAA
:10158800555259657882889092A2AFB1A595848703
:101598008A939385745F5659606160525A667D9844
:1015A800A1A094847D7C828A98A1B1C0B7AF8864D9
:1015B800433548586D74736E697881827A70707F8C
:1015C80092AFBAB8B7A7A192826F5D5964748E932F
:1015D800897C65574F52585E698194A0A697877A8F
:1015E800768795A6ADA8A59891857463585E687BA3
:1015F8008789867468594D5765758995989C90892F
:101608007D737D889BACB3AEA48F8479706C67645E
:1016180068696A747179726C635A5C6F879CAEA74B
:101628009D8C82808D98A3A39B93857D76706C6A30
:10163800646961666B75828783796B5E646F879E68
:10164800A9ADA9978F808485888A817B6C655F693D
:1016580072839096958D7E7D7A78776E6C686E77BA
:1016680082898E8A8482858A8D8B8C88847D767720
:101678007D8A90928E8B80776E6967696D757979AE
:10168800787880888A898A88898584838989888006
:1016980077787E879090877C727373787B7A797875
:1016A8007A7D8184847F7C7A787D82878888848328
:1016B800807C7E7F82878C8D8C86817A77797E800C
:1016C8007F766C6B6A727F878D8D838182858A882D
:1016D800817B787D858C929289807B747473747514
:1016E80078797B7E818686878485868584807B7BE6
:1016F8007E8184837F7B7A7C8183837F7673707914
:10170800868F948C817C7D858F8D83797070797EAE
:1017180083847B7774788082807E7C7B82878C8DC3
:101728008986838484807A77777D8385857F7876B8
:1017380075788283827C75717279828785847F7FD0
:1017480084898E908A837B777B7F858885817E7B61
:101758007D7C78756F7277767A7A787A7C81898CD5
:101768008E908E8F908D8A847D7D7C8084807B7521
:101778006F6F7174797877777576787A81888D94B8
:10178800959594918F908D89847E7C7A79787570FF
:101798006D68696D71787D82858482828083868C8C
:1017A8008F8F8D8A8887898885807B7A7979797601
:1017B80073717173787C808283838280807E7E7D62
:1017C80080868B8B8686868A8C89837C75737677F0
:1017D8007879797A7A7B7C7E838483807A797A7E39
:1017E8008081868A8D8B8A8786858482817D7D7BB0
:1017F80077767373767981848485827D7975707242
:10180800767B838B949593908D8A8B88837F7A7966
:101818007877797B7A7C7C7B797679797777726D42
:101828006E72768191A2ACABA39588828080837F0B
:101838007D756C6E717273706C6C6F7A818482784E
:101848006D6B737F92A5AEAFA599928A8781766BEF
:101858005D595B687781847C726D6D75828B8E8A29
:10186800837C78797E85989FA6A699907D746C660E
:101878006663676D75818481766D6C7683959B97B9
:1018880090857C7674717682919CA49E97887B70F3
:10189800645D5A636F80929C988B776C6D7B8B9399
:1018A8009287766A646670859BAAAFA69B8E8177BD
:1018B800685A4E4C5C7598B0B29F8163565D6E82D3
:1018C8008D938E8C8A83756D778499A6A19884767A
:1018D8007167655850627898A7A490725C5F707FB2
:1018E800989B95918D857768656D7B98A1A199885E
:1018F800807C6F56443D567FAAC0B6997658516091
:101908007189979DA19F90846761677C8E99A49344
:1019180088817966564D586694AAB1A4826F5F6231
:101928006D7D808C919CA2978367564F637484A0C9
:10193800A7AAA086684E39466484B1BBBDAC87753A
:10194800747E96A8AEA9A38C836A55594A50545CF4
:101958006A76716F523A353F5882B3CEE4DAC7A738
:101968008E8A93979F9D9A969087695745444D5ABA
:1019780070808C8F8D806C5F5A617A96B2BCAA8E0B
:101988006C5F66829BA1998D8E8E8E81735B5E6E75
:101998007F9FA4A594867C6B554843517391B3B33C
:1019A80099846C5F6F7E86857D7C8C969A947B7912
:1019B80074818D8D938F86796C5E656B7C8E99941E
:1019C8008B756964576971838D8F9191888279735A
:1019D8007B888E929194A8B2B6956F5351607A7CA9
:1019E800755D4A5558656868637483989D998D7FBD
:1019F80089A8C8D6CCA48881898C765137344F728F
:101A0800827359353D5761787B818EA6B5C4BFA7CF
:101A1800988C94A8A99A8162606368675245526A53
:101A2800838E7F6D57586770798697A4B5AD9D955D
:101A38007C7C817F938C88857A7D7D7361554E6728
:101A48007B8889716967737F7F7578889FB9B3A729
:101A5800927575828FA29B867E6A67634E3935467A
:101A68006E9CADAC8E7A6E73808581889AA5B6BA65
:101A7800AE987E6566646D70665C5A555C65647583
:101A8800859BAEB5AA9E9386837E777E879EA49F0C
:101A98009D837569514C4C576E7C888E8171645654
:101AA8006989A3BCC3B4AAA28F806A5A5B6A879962
:101AB8009A927E756F6B6C6B74838A919588735E4E
:101AC800505B7999B1B9AE9E937B6455464D658854
:101AD800B0C4C1B39C8372625D6B707B85888A7F5A
:101AE8006A5C616B87949994897F7B6A666C71855F
:101AF8009BB6B0B39F99837661607885918B8B7C18
:101B08007A605C555F697F8CA2AA9E8A5A504A61A6
:101B18006E9EADBABDB9B7A591756D7183828A7E87
:101B28007862584B58677485868E8F8A7156434FF2
:101B38006493C0D8D5CCBCB2967A6C607077757651
:101B480082837660433C4B5B747E8D9C9E95796660
:101B5800657796AABBBBBBB9A5846560667C8078AF
:101B68006F7B7A715C48495D77889296A5998C68F5
:101B78005A58758793A1A5B0B1A78F7E72756F70FB
:101B8800656A798B84786A63696D717685908B7ADA
:101B9800675865747F8FAEB7BBAB928070676D7204
:101BA80078858485877F756D62616A77828C8B8181
:101BB8007B737078737882999C9C8F8C8A807A70FA
:101BC8006F7A857E80808D8B88746762737F84834B
:101BD80078756B6B6B696E87A1ACA494908F8279D2
:101BE800737483897F787C858781736E6B706F6C63
:101BF8007475756B6F747B818F9CA6A49E9E968C62
:101C080080786D6D6964697A85847B787E7774697C
:101C1800697684837A777F8C8A8B8A9A9FA3928449
:101C280079777E7975686B677D7A766C6F787F7A5D
:101C38006E788AA39E917D8289897A6D7488908A4C
:101C48008285979E937A665C5D71776F6B6C7A80FC
:101C5800807A7F8899918474758288837C90A3B1F7
:101C68009D86757C7C7864585C63747D7A787F8205
:101C780086807B7A8083837B7D8A969D9A8D8F90E0
:101C88008E86776E6E7673746F75787E7B7A7573D1
:101C98006D64686D8294A0A2A69D9F9184776D75EE
:101CA8007B7C797C7F8C887E7272757A797570718D
:101CB8008286867D7D818886827E7E858C8B8587DF
:101CC8008A908D84797779817C73696A7B8588822B
:101CD80080848B867D74747C83827D82858F8B80E3
:101CE8007F81878B88807A75757B85857F7E8485E3
:101CF80083827A7D848683827F8383766F6F717314
:101D0800797B81888E93958A8078747A86837B81A3
:101D18008787827F7C89877F8284857E79737972C1
:101D280063636F7C8286878F948B817D83867F78BF
:101D380082898580808A8C8581878A867B787B7971
:101D48006B62626A6E7A7F8A918887868D8C8277C9
:101D58008284817D7E88908F88928F8A7E7C7D7731
:101D680065575A60767C777F786A6A7A7B746B737A
:101D7800858A9380B2B2919F8AA1AC9B767278646F
:101D8800695D65555A70586F7062566A7762666FFA
:101D98007C7D8087A7B7ACB6C0C3B8A29BA1978A41
:101DA800878D938F98969887938A666E786E60571A
:101DB800677E675E748E7C826B6B8A70696B5F4F1F
:101DC80048361C1A2B374F4F5A656C6C7178746102
:101DD80065858B899AD2C7C9D5E0F2D7D3D5CEB558
:101DE800ADAAAFC1A796A9A2AF835D6A7B815A53FA
:101DF800547F686E7F8C80637F7F98829C766C723C
:101E08006358483E25524640454D604F3E696C60D8
:101E1800797B788698868495B0B7A5A2AEA4A69952
:101E28008EBAA08793907F9E9D8885627792A194B1
:101E38008BA2B69AA1BCADBAC4E4FFFFF3D8C0A583
:101E4800A690726B4F6158626E5E52585C5D6F3E31
:101E58001E2A4328143363736A748B947869635B0E
:101E680058514A3E272C23213631223F55556B5C69
:101E7800443F6E9F9E847571788277858F9FB7B235
:101E8800A9A79C9F9E8A7F7E7A83857A877B6D88A7
:101E98008E8699A7A9A4A3A2ADB5B2BAB1B2A7B6C6
:101EA800C2B6CDDBC5B4B09A9AA4A3959BA49E9A5A
:101EB8009B9A96978771707782A9BDBAC6C9BFC128
:101EC800B5B19E9477614B342E3C52444E454855EB
:101ED8005F4F5A6F6C6F5B54565E6164524E5E740E
:101EE8008686726B6E5C5349513735373130282BF3
:101EF8002F4341576C756C74747C857E847E77752E
:101F08008683818E9C9CA59E9A97999185848C8EB8
:101F18007C888998A3AAA49EA8B3BFCED3D0C7C0F3
:101F2800C4BBC4B7B3A9A99E8E9494A1A6B1A7AF08
:101F3800ACACAFB4BFC2BFA7958E928C83738190AF
:101F48008F939E8E8B8C7D75695D494B4845433CCC
:101F58003638445E74736B6B655E5E605F5B564FCC
:101F68005E6B63585E5F646D675C4E4C4544433EF0
:101F78003A31373D4254616264706F768787918742
:101F8800857F7C7C756F63685C5855627076817755
:101F98006B6C6E7274899DA6AFA9A9A7AA9BA4B2FF
:101FA800B8BFBBBCB1BAC3C3BFB7A393929A9A8E4A
:101FB8008A868691A8B9BEBFC0B9B1B0B9ADA7A38A
:101FC8009E9F949B9EACB8BEB8A591828280737781
:101FD800727070706960737D7E7478747B786F67D7
:101FE80061595956454B4C48443A252B3746565E5D
:101FF80058554F545B606D6F796F695A5359504B00
:10200800525A5A5D5A555F6C77755C45414E5D660C
:10201800686A6A757D88918990928A8990908D897D
:10202800929894938F8DA1A4A9B19A897C7E808778
:102038007D8686838C89929CACB9B7AFB0AFBAB3B2
:10204800ADAEA99D9D91989F9AA0988B8187868B0C
:10205800888E9295A0A6ABAAA2AAA99C9D999995AB
:102068009393A19A989190979DA8978371686268B5
:10207800615E5C5F6C7274797371726A6563665CC9
:1020880059575C5C615B545C5F626054433D3A3312
:102098002C2F39454C54565D677881807A72767F4B
:1020A80084766D636163646B6C7177736259656381
:1020B8005A5C5C677988909BA3A9B1B0A8A4A4A432
:1020C8009D9DA1A4A69D99928C92988D8775717CEF
:1020D800847F75706D818DA1AAB1B4B4B4AFB7C057
:1020E800BBB7B6A7A9AEA8A9B0ACB0B1A899887F6C
:1020F80076686368696A6F7E8A94A7ABADA8999E73
:10210800A49C8C806E6D6F6A6F6C72726558514FAB
:102118004E49464441464B546976797D7977716ECC
:10212800727475787371756C6B6B71797670645EA7
:1021380059554841444A545868748291918D86840F
:102148008E92898B88868E8F959A969895887B6DC6
:102158006A615D6363606666697D869EACADAFAD9E
:10216800ACAEA7998E83858081847F87908C878584
:10217800837E6E676E727F7F82929AA0A7A29B99D8
:10218800989B989A9D978F8A80817F7A7D79716EC6
:102198007379736466696C6D6C7782879399959788
:1021A8009CA19F99989798958F8F89848181796F41
:1021B800686867606260616363687A8590989791E0
:1021C80094A0A6A8A09A968F8785817B7972635C74
:1021D8005B6061585455595F63606A7A828F9B9936
:1021E80098A0A3A5AAAAA7A69D96918E9496897C45
:1021F800726D6E726D666565646165707C80837EE4
:10220800818C95969598949BA19E958D827D756DF0
:10221800665F59524D50585A5F5E5F657387928F5B
:102228008D8C8D8F8C857E7C7D787574706F746BCA
:10223800686D67695A5F6667757D7572797E889083
:10224800929299A3ABADABA2A5A6989286827D7215
:102258006F6F726D6C675C5C6370747D888C969828
:1022680098989A9BA3AAAAAAA9ABA49FA19C928A70
:1022780078695F615F605C5862646C6E777E8386A4
:10228800838E8F9EADB3B5ABA8A4978D87878281C7
:10229800776B665C5B53504F4C54565864737F8B16
:1022A80099989A9E9CA2A1A09B9F9A949693979383
:1022B80088787070717872716A6F6D64696B6D6E11
:1022C8006D666C6F72808B94A5ACB6B6AEAEA59AEF
:1022D800897A665D555158504E5159616676808CA1
:1022E8008F857F7E85868D8C8892949894908F892F
:1022F800898581857F7D706B6769797C847B7E7831
:10230800796951565B69707C8794A3ACB2B5B1A268
:10231800938A796E6F71756A66686B6E6B70757B80
:10232800808588898D8C9295929699A0A2A1A09B70
:10233800988C7F6B6863626561636770717A848764
:102348008B867A7B7E8583827F80898C96949A9D02
:102358009DA29B97887A6B5D564C52585D646A764D
:102368007F8A8B878C8F9596948D8A8A8384868DB5
:102378009395968F8C8D8C8780797072716E727739
:102388008286888382828085838489919A9B9E9D98
:102398009C9A8F8678706A686862636366656771FD
:1023A8007581807F858A918C878080868B948F8DBC
:1023B8008A88897E776B65626166626D6E6C6D6B0B
:1023C800767E867F8087888E8A86848386848A8EB6
:1023D8009194939490938A7E7064605E6466655F5E
:1023E8005C656E797E858D94A0A2A9ACACA99F9AF4
:1023F80090908C7E7368625B5A54545C5F6A6F730A
:102408007A7E898786838486888D898F929597932B
:10241800949297948B867D766D68635E616064653F
:10242800676E767D787D818695979A9C9A9A9A9C14
:102438009DA1A1A09B95978F8F8D827E76757375D0
:10244800727176777975797A80858286878D908B97
:102458008D8991938E88807B7478706C6B686E6CB4
:1024680073767B85828381817D7C7E797E8185857B
:102478008383828A82786E5D5B5C5D62686E7B8531
:10248800878D8E8F908C8A8785878686837F7B76DB
:10249800777B838B8F8F918F868077706C6B6B6A5D
:1024A80069686C767C7F7F82878F97989A959592DA
:1024B8008C888587848076706D6C6D696B6E6E74A0
:1024C800787E818485858583878787827F838185D8
:1024D8008683838283817E7A7574736D696E707763
:1024E80080848A8C8E8F847D7D7F878B8B8F8C8672
:1024F800888A8C8F9094908A8886878076726E6C92
:10250800707272757C8687818383888E8E97989483
:10251800918D89888788857A7775797B736C635AFA
:102528005E666E74777D827E7C7C7C7F7D838B8FFC
:1025380094948F8B86878A85807771737170726F98
:102548006C7173777B7D7E756F6F6F74787A7D7D24
:102558007A7E828488888A8B8C8F8F908E8B8682F5
:10256800797777767D808584807E7C7D7E7D7E8090
:102578007F808381807E78746F71757778726F71D0
:1025880073767B7E858B8F9494959692948F8886AC
:102598008485827B7B7A736C666667676D6C696B12
:1025A8006B6F7B7E848A898D8C8B8B87888A898BDD
:1025B8008D929A9FA3A9A6A29A91928B8A7F746CF6
:1025C80069696A6D6B72757B8082827F84898B8D65
:1025D800898284878B94918A847E81848A8A867989
:1025E80071706E78787B78787B7D7B77726B6B6B9C
:1025F8006F747B7D7F82888681786E6C6C71798040
:102608008284838990919188817B757676706C64D9
:102618005E61666F767D858A8C8B87878885827CEC
:102628007A7E7C80878E9393949B9B94897F7B781A
:1026380078776F6C6E7073777A797A77767575724A
:1026480070726F6F77899396969AA0A0A2998575F4
:102658007171767873747A808387857772736B6605
:102668006362686D6F7C898F92979D9FA3A3998FF2
:102678007A757D767882888B9B9C9B9C958F8B85C1
:10268800757063585B64717D80858F989EA7A79C41
:102698008D7E7D787A75777572767E808187817B6D
:1026A80076716C68606069787C8386858A93979573
:1026B80093807C786F72716C6F786F7C807D828676
:1026C800817D817875706C6E827F7E87838A959014
:1026D8008E8471756A6A6E7980837B7E81848F8D22
:1026E800897C777C7E747D7A828D8C8E929496918B
:1026F8008B8885908C806D72726D6F7577727B8117
:1027080085887D75737071727A81817E85849499CC
:10271800A08E7B8A929B8287877B76686159575DFA
:102728006A767A818C8A6C6C6C616B7682819BACE0
:10273800A7897D7A768893AEC2B8AD9C8C7C6B6A8B
:10274800747979706666696F6E879193968C8A88BA
:10275800898A938B82848F8E7C7981929385897FF5
:102768007F6D554630374F6A7F9EA9AEA483736C40
:102778005D6474898992A897817D89867A72706F61
:10278800787A7F8F7D5D605C5F7288928F94918983
:10279800807D76716A6B747B808B999E999A8E7D09
:1027A800787B72786E606E6A6C76848E9EA39E9338
:1027B8008D897E76737A898780858995968C8981BB
:1027C8007A7C7C7164615F6261656471787E9297DE
:1027D800928F9788828388877D6D6C7375818B8CC7
:1027E80082828681756B616056515C646772889AD3
:1027F800A7ABB0AD9686878C918A8784878A979F86
:102808009E9A93917B7774746E6C696B706E7E85FB
:102818008E91969691898B8B87837F7D7775737957
:102828007D8082857A6E655F65676B726D686A6F99
:102838007D8A969C988C83827B74706D6A74787993
:102848007F8086929D99928A7F726D5F53524E5215
:102858005F73889293938D878D94918D83848A90EA
:10286800857D797C888B928F878582817764605299
:102878004A56687C8B92958A889595958A7F848D2F
:102888008A888078787C878D8982828183817C6E32
:102898006162626D828583887D88949691897F7E46
:1028A80084878B7E7E747A8A908F877C7D79747911
:1028B80069606166778E90949491979DA2988680BE
:1028C80082878E8B847C727B8C90918F8C8D817BA0
:1028D8007B67635E67798085868183898C9286822F
:1028E8008B8F8C897B6C626571777B85858A8A86FC
:1028F80081786A686D6E726B6E696F7E888C8B7E6C
:10290800858E969B93847173798484837C7B7B7C8E
:102918007B6D645959626C71746F727F8C96988E56
:10292800807E89999B91877D7E8A9292887F7C841C
:1029380087857E786E6C75787B73756C7780888BED
:10294800847D7F8E989A908A7A7B828C8C8582850A
:102958008D91958982776E6E6C66585D5C6A7A8215
:102968007C7772788D9092908E828989867D757336
:102978007A83898C86817B837F818074747D7F894B
:10298800897B747B8594989B9DA3ABA7A6998C8122
:102998007F7B7F7A7D80797E7E7672736B696B71BF
:1029A80072706A606D8083898E8C979B99958B84F1
:1029B800818586877F7E76706A65615E5A5D5E6016
:1029C8006D6A6A676D7E8F8F928F9BA6A4A395868A
:1029D800807D7C87797678787B7E807A746C6D6A66
:1029E8006D6E6C68666B7C8B8E8F91A1A8A5A59B7C
:1029F80088837D80857E808585878689877D7971B6
:102A080068636B6768606C757D7F83929A9A999FFB
:102A18009698908F8D858286817C7A72746F6D6EA0
:102A28006C676A6A6763626F78797C818D94949A1F
:102A3800958C8C8A8F8F87898B898F908E87837CE2
:102A480079737774716E6974808A8891949D9AA459
:102A5800A69D9793908F8A838B8384807F7C7B79D4
:102A6800766E666A63605B606B6F767D83898E8E37
:102A78009C99969793908A7D797C747D78746B6520
:102A8800676766737870736D75817E7D7F7B8189DA
:102A9800959895948E8E918984857983867D7971B0
:102AA8006C6B6B7275716C6A6C747F858E8B887EAB
:102AB8008A8F8C9498898C8D84918F92959487872E
:102AC8007C766A6E776A6B66676873757F837D79D3
:102AD800808A8C9397948E978D8D8F8E8E8E82732D
:102AE800736A6E6877776F696E72787A6A76736ED2
:102AF8006C7F7D848B8F8B9099959D9997999882FF
:102B0800837D7B6F767D7870717C8189828B888BE1
:102B1800858B8D8A8C928B7E88888C928C909583FD
:102B2800817D7B6E6C71706A636D7684767E797157
:102B3800747E818584869286867E7F7B76777F7594
:102B48006F656A68687477786D757A90817B7F7035
:102B58006E7F86817B72778188868B9388879A8E31
:102B68008E8178736A6D6B6964676586867C8983F4
:102B7800777C7F8B8A7A79778083848B8A7F96901B
:102B880092988A9388807A7B77746E838E747A7A27
:102B9800747D737E887C797E8789838C94869292F3
:102BA8008586746E76716B6D6B6B646881777A7EDF
:102BB800797775748083818E85A8A59FAD9D969D34
:102BC8009B968C706B6F666768626457707D909097
:102BD800848C8C7D769189848599A0A0ADB5A897C1
:102BE80097998D87878275696B66564E5E626167B5
:102BF8006B5A656F6C757D768094A0ACB3B2A1A555
:102C08009D96838F8671786C64636266736E79872C
:102C1800826B6F7860566E625263677D978F99B248
:102C2800A6A4B3BBA9928A8678766D63676E6C6931
:102C3800686A7361787A746D5854566C8EA594A737
:102C4800B0A1A5A2A1937B72798B80757F796772F9
:102C5800897F89837B836E757D70727FA2A8A2A10C
:102C6800998A837F7C796160655B53595C7B727B51
:102C78008A828C817E6B726C6563666F8DA8AABB35
:102C8800BCC2C5C2BDB1897577777B72666B726548
:102C98006C737B7D81868591827262536A88969E69
:102CA8009E959D979DAE918687809190868A7F7329
:102CB800767370736D6751546A5865675E70849255
:102CC800989B9DA7919A93757C604851536A867822
:102CD8006D707B8C9090877B6E67657260657E8572
:102CE8009FB6C2BFBCBEBB968B7259595553636120
:102CF8003E4847606B798B83837D766F77727E86DB
:102D08008CA1B0C0C4BABAAEA294787B746C7F8E22
:102D180077695945505E6E6C625A5364716C738260
:102D2800807C97A5ACAFABA7A095765A4D5265802D
:102D3800817C7874757A858580645E5F6D6E6D833D
:102D4800858D98A5A4BFC8BCB49A8474685F546381
:102D5800706A6F70737989909D968685787A808875
:102D680085777A848E99ADB7BDBB9D8C7B6D626388
:102D78006663665E453D525C66665A61717175822E
:102D8800898B878A919AADB7BDC0B1A28A73747FC7
:102D98007B78726C6C51535859634B3B4A595C7938
:102DA800848694969995B3CDCED6C6B5AB8E7172FE
:102DB8006B66706A726B5D736C6C705F594D4F64B3
:102DC80074676E75848E89969FB7BFAFAFB19793BE
:102DD8008B777B827C6A677680808175737C6B6C6D
:102DE8007D7F7B7173787C818182898E8E867973F1
:102DF800756F73849294847E737A7F6C5D6370724E
:102E08008B93989B9F9A97ADACA6978B89938C834D
:102E1800787074696D7A868A8C8A8B83766C5E6129
:102E28007076767577888E969CA4B0A294969796BD
:102E3800927F7A73727067727E827E7D6F6A665C3B
:102E4800686C7A7A717A7F8B9091958C7F796F71A3
:102E5800817F7B7F7A7F837B7C7A8384766B6867CC
:102E6800737F8E9E9DA5A09DA3AAA79E94847A6A2F
:102E78005F5A5E616260636B696D747F837C7466A0
:102E880069727A8793A1A6B5BABBBEC1C1BBAA9B1A
:102E980089726661616462606B767B757B78696153
:102EA8004D44495662717C8D9BA1ADA9A6A89A9202
:102EB80083787A767F91969B9583868681807369DD
:102EC800624D505353667683909B9E988E9AA2A526
:102ED800A68A7978757B86909795969A948B88853B
:102EE8007D6D5F574C565E70878C99A9ADAAA194E9
:102EF80091816F6959515A6A848E949E9A98928EDC
:102F08008B795A4941404E678D9E9DA6A09B9A9702
:102F1800927D68635A50555975888E95999188782D
:102F28007980757563545158708A96A3A4A2A49D9C
:102F3800988F756B6E685D51586A74788891949211
:102F4800949283735E4C45415077929EA8B3BCB966
:102F5800B3AE987463554A4F4E5F73839AA8AFA275
:102F680090847B6B645546423F5D8599A7B5ABB0AD
:102F7800A89B8F736354565765707F88889AA6AD4F
:102F88009F928B7C6C63615D5E61738D95A1ACAF24
:102F9800AAA29B9083766653505A6C767A7E909D4F
:102FA800A4A4928475665A52433B4E67879FB0BD6E
:102FB800BAB5ABA28C826B5D51536B8095989BA17F
:102FC800B1A39E81685549494A4647606B8698A4D3
:102FD800ABA2928B817C7464564848708FA09F90F6
:102FE80089909BA1988B7B6E756F716B757F8F969F
:102FF8009D94807972767C725B4D363A5B788F96B9
:10300800959FA2A79F8C8177737B6A607085A5B90D
:10301800B9B1A2979EA19D8263524C566F898E8F3B
:10302800848186838172615F6E78725D55617AA54D
:10303800C9ABA88871A49CB1B194675D787D887983
:10304800837068785A6C616460758A5E57564E5A08
:103058007E809DA196ABB9ADB8AC9A957E7E7B92E9
:10306800AFB8C1AB8D98989A957C606B646879838A
:103078007A59444A5F63706A7064534136313C53ED
:1030880056647F89736970768B8A7F998E798D9063
:103098007A879EA08E8A8DA7BDCCC4AAC5B0B8C1B8
:1030A800AA998691AEBEA99A98B7D4C2B9B7A69B79
:1030B800665A5E503E52463F6F6A6A543C233B4E06
:1030C8006566637E776D57363E6E7E807F7C72685C
:1030D80068594758636571807189928C8E7D7D5DD2
:1030E800525959616D8D989D9F99C7DEDDBED0D725
:1030F800C7BCA4C1BDBFB7C5CCD3C59682858E88D1
:103108008DA0AA97846A7079674C5C7C90928A8FAC
:103118007B78726762523F5049353B3B3E58624F5D
:103128003C304F5A52413033463B1731698D9A83B0
:103138007973666B5A546B94A1A39C92A6ADA59E15
:103148008D7D869197826C647881767A99C1BCAFBF
:103158008A8D8F8B8A7C8294AFB8BFC2CABFBA9F50
:103168009599B0C4C2C4B8B3A3A0928E87A5A7ADE1
:10317800B0ADB09699857776878284727374766ECF
:103188006671789D99AE96837F6C62677365717975
:103198007A77746F6C625B4C4B5D67644D534B463A
:1031A80037261F1933414348443F3A1F233D454EB4
:1031B8006B6C757364818A7D777D7D8F907C848E3E
:1031C8008C86768598A6AEA3988F83726B697D806E
:1031D80084A9BCC0C0ACBBCAB099919DB2B9A2BB0E
:1031E800CFCDC8B7BFE0F3E7D5CBC0B09B87969CDF
:1031F800A38E97A5AA94788E9FA2888DA0B49A7062
:103208005F6A65534041637C837D8B939572554A11
:103218004F4C3B3248574A4D67818D8475837B629A
:1032280042332B2D23192E4B6A767571746D533BDF
:103238003E4B595C58575B4B4E646A7076808D8E56
:103248007C787A7C746E666A6D77807C79717F7A17
:1032580075758189837572726E7279848E9AAABA2D
:10326800B3B2A3A39C9590969698AEB7B7AEACAF01
:10327800AEA09D9EAFA9A1979390949A95A0A7AB55
:10328800AEA5979387807E8A848B8B9195918F8743
:103298008D8880828386887D6D5E5F5B5F51485430
:1032A8005960605C575350433B383A3F3737303AA0
:1032B8003F40474C575A616A6D6E68686C798176F1
:1032C8007B7E8686796F69685F625E636F64605C27
:1032D800595F5D5D60696D717581928F8A8C95A269
:1032E8009B9BA1A4AAA69EA0ADA7A8A1A1A5A197B2
:1032F80090908E8B828795999194949993878185E4
:103308008E979C9FADAEAFB3ADB1B5B1B4B4B3B108
:10331800AAA5A4A19F9D9FAAA8A4A39E9E9D95939C
:103328009088868279716C6B68686F6C6E7374753F
:1033380075706A6A6464606567696A6D7072726DD7
:103348006361605F5E5556585A545C5F6372707370
:1033580078746F6B66605F606064696F6D6E6964D6
:103368006B6D71787E81828D8E919593A0A4A79FB5
:103378009D9E9B9A9793908C8A8588898B928C8E38
:103388008A8B878A8D8D8D8A929FA29FA0AAB7B8B3
:10339800B7B0B6BBB8B3ADAAA7A39C9BA6ABA9A66A
:1033A800A2A6A59D8F8E908A8A86899192939BA6C4
:1033B800AEADA39B989A96877D7F7B7A7578828439
:1033C800808189918F857A6D6C685E575A586060E4
:1033D8005D6367655E5A5A5A534F474241424C589B
:1033E8005F62656B7076787671706A666464606433
:1033F800626870727775797774727779746F6F6DA8
:10340800706863676C747B7D7F878A84808388900B
:103418008B847F878C8D87888D95989694959691C7
:103428008B8583837B72757676767A7E85848483B2
:10343800847C7677767A79756F787C86878B919B92
:10344800A1A3A2A7A29D998C86808177726C6E75C4
:103458007D7E7D7B7875716A666963666770727652
:103468007D7D84878C8B919593908C84837D7B7AEA
:103478007C807F847E7E7C7C787569646B6A6265FB
:1034880061677473757285888F89838C95948B8D29
:103498009092958D8189878A8183807F84797977D5
:1034A8007C7E7C766B6B6D6A6D6D6F727274707AF0
:1034B8008081837F7F7A7B6E676F6B7071727279A0
:1034C8007E7777796F6C65615F61635D68636B7840
:1034D8008383828B8A8F897774777A77716F687222
:1034E80076787F8586817C746F716567676F726691
:1034F8006E7780858E93948F8E86898B948B82834A
:103508008B9B90908A8C8F8B807E817B79736D6981
:10351800717370767C80889688979EA1ADB5B7A6A2
:10352800B0ADA6A1A099958D82767B878A8F98A247
:10353800A7A6948B8A83807E6C6B69767772757D7B
:1035480087898C929A999799948F8E8288868E8C87
:10355800897F7F8080867A7169645857585E5F6971
:103568006A727F7A83898785939B9089847F7C7D23
:103578007976878C879087889595979EA49A817786
:1035880064564F4C534C4E46465A716D8293889CF4
:10359800A09C998E7D909C9B918E947E8684868437
:1035A8008B9BA8A694907A72696870695E71675D52
:1035B80060637383858EB1B4ACA4A89D959CA19DCE
:1035C800A2958A97939C9FA19F9CA7A0877B6F62D7
:1035D800625D55646A6672767E8291A7ACACA69EDF
:1035E800A39E86817A75808B7F746F75787D8C85B4
:1035F8008C8578777E7C7575797C7A796E6B71733A
:103608006F77787B7F7F7D7A878B8D8E9193999664
:103618008E8C847E878F908B8779645E504C52584D
:103628005A7172718290929BA9AAA6ACA992917EB6
:10363800706B6C676B6F78808B938F8D91888581A9
:103648006766666960595B6B797C7274868D989D34
:103658009898A29C9C959493939B968F8E88868D20
:103668008C8E8F8C89847773696C635861676B71F2
:10367800716C737A868B94959EA19F939490848B9A
:103688008D898484838A888C8280776A5A4E4249DD
:103698004C464A475C6871767F86999D96949496C5
:1036A800928A877E81928F958F8E91877B7C7B7C97
:1036B8007B6F5D52555D59575D5C767C7F7D80865A
:1036C8008D8F858084908583877F7E807C8A919684
:1036D8009B9B95938F8A79716A5753555251514DD7
:1036E8005B61646A757C8E939A98A0A69A9F999C50
:1036F8009493928E888B8D8B8F8E888C8F8C806F15
:10370800675F6761585B646A787677787D797575E5
:10371800768282827B8C9195989589969B9C968BD4
:10372800877F7D6B5A4D4644535150586A6875736C
:1037380073737875666B6D6E747778878E9999A3B5
:103748009EA69B9A918A8E817A736A645F5C605D9B
:10375800615968707879847F808E887D7C817E82CB
:103768008483878C828790908E9C96969D94827D88
:10377800735D56544F586A636B7A7D858D8C8E972E
:10378800927C7679727574777E94999AA7A7B1AF6F
:10379800AE9D999384736E645B5A5B636A74768199
:1037A8007F837E807D7D7B76717781848C929E9CE1
:1037B800A29A97948E80797D81817D686563646221
:1037C8005F635D6562676D7270757C8582837B7BE4
:1037D8007871767A898383818E9BA09EA0A0ABA501
:1037E8009B887B73615C4D5351585B6C747A848EF3
:1037F8008F99989090867B68676073838F8E9AA064
:10380800A9AFAA9E9B988B87776D666C5F5D5E6596
:1038180068787B7C84848386887980848B8A8A8490
:1038280087969C9B9D9A9AA3A4958D8F949486774E
:10383800686F707172717578807479767A868B91F9
:103848008E96958E837A7580858D858B8A919393D4
:10385800938B9B918F857868655B58565A596B7224
:1038680070797D837B897E8E9A978C8482828B8BFC
:1038780087909B999B989C99A18F82796A615B5FDD
:103888005D6F7B7C7A7B727B87908A878281918D42
:1038980085767D808B8A838A9EA09EA09A94939039
:1038A800838179766D6E6069767D87827879787A9A
:1038B8007E77777D8D99A79E999795918D827D8545
:1038C8009CA3A5A19AA1987F6563657478747B8889
:1038D80095968477727A82848A8A94949896878156
:1038E8007C72686C6D7A8DA1B7B19E938983644CA4
:1038F800414C57595F74929B917B645D72667177F6
:103908009199A39B95A3948D776D687B859EAFC293
:10391800B29F887160463C44626D8494A6ADA37CD6
:1039280065565A5D4F607191A2A08C999DA3967CB3
:1039380078859A94948BA2A2A188766A5F534E4B9D
:103948004E6E83897B7D696C717263606988B0B6DD
:10395800B3A79E98886B533F546F8CA4B9B2C0C666
:103968009F796A676671627197B7B59D806F70615C
:103978005541404F698179717C8B8B81726C7F8E48
:10398800919DA8AFA5ACA2785D4B3E46473B5271CE
:1039980087989A83817668523A3B6199C2CEC5C4AA
:1039A800A98D694B4A5F707E8EA5ACA1917C6C5F36
:1039B800483F424D5C768885785C5254645B54611C
:1039C800809EC9DBD7CDC7AA7B66585C57706173E8
:1039D8008F7C8881758885705D5557658B9F9E9B08
:1039E800886C676C563762797D92ACAA9E8D6D564D
:1039F8004B66739298959495726775696E8C9F7DE6
:103A08006E5E6675848A84818DA3A490778FB0AC2E
:103A1800A49B7F838071746D7C7869565051473BB5
:103A28004C756C6E808B7D6151598A9FB1BECBC33A
:103A3800CBB984717D848D9E888C786B562A020A56
:103A4800213D444B5D6A8495B39F92A1B3B2B0887F
:103A5800839EAEA18460748F83795F716C7B87814C
:103A680059627E7F73646769708B83788B98B8AE70
:103A78008B5F5A5350493F4F6D8C867073737878BB
:103A880068626A7D9ACDD3B5AAACA4AEA2A09FB253
:103A9800A48D7856716F725D4E423E5563624E5FDB
:103AA8005D525A7190AACFDFE5D8C7BFD3D7C6BC3D
:103AB800947A756B58443444504E554D55545D4F67
:103AC8003B2424506FAEB9A58A94A6B2B7C0D4E3FC
:103AD800E8C4895E584B593D364B6B716F7D8391B5
:103AE800989F7A53515C78878C8795C4D6C37F6A30
:103AF8006985807D79759096A079726C8FA2906E99
:103B08006F7C737F71706DA3A888684F4A465752BF
:103B18006B8CABAB875A33426286A0A2AEB8C7CED5
:103B2800B9A099998C67563B507BABC8C0D8C3AF36
:103B38007B6D5547494959759797967F756971788F
:103B48009DBDCBC7A69F81605C6A767587766C5BE6
:103B58006B8992B6B2A97B745D5B3C314A69A3A8B4
:103B6800A98A8A767B665957628485979C9F90AE0E
:103B7800A78A7B6E7477898295B6CBC59B84625D74
:103B880048493E466473866A523857749398A4B578
:103B9800C0C9C6B4A7B9BAB98D7250454A534E5C6C
:103BA8007A88A1957F63544B453F4E607C8F979AE6
:103BB8009AB6BFAE9D8F868999A6A6AF9D9B817E3A
:103BC80061535561848FB097A9908F797359456275
:103BD8006B979199716E6A8A9BA49FA1A68178645C
:103BE80078839F958B877D7B6E615570908D7D84E2
:103BF8008791AB8F6A4F49687B7B4F3F355F827FE8
:103C08006E678591987B7B80B0BEC4B099887374C9
:103C18006B8691A38E8359586273674E585E857E72
:103C2800824E405A8CB9A8A4A1ADBBB6A8857076BF
:103C38007899938A8266504A6977858973706F8A02
:103C48008774695C80837D624E4B6D8F97947E6725
:103C58006B88A7B9A89C6E859AA3A08379788F9B57
:103C6800A2937B6A7380756B7B7CA1B8A77E695829
:103C7800617780959B997A60697F9AA07A716B7851
:103C880079816653607B948F9176838B866D665AB3
:103C9800769E9670575E5C6A67706E7C7E75726CF5
:103CA8008CAAA89A8B71575E63647691AFB2B08183
:103CB8006B6A6C71788C99B8A18169615A62767562
:103CC80083848A7D70625D67769EB9B091766563FC
:103CD8006A889A9FA18B886B5745546D81967A683C
:103CE800506260697775878796919A9BA2A390AC7A
:103CF800C3C5B58A67475B8095A08578695F5048DA
:103D08005E73AEC0A87F554E556E75818F99A19D83
:103D1800887F888A8693949EA2936F474758889590
:103D280094736B685D5D52637FA198896A55587278
:103D3800848C94999B9C8F83867881868A828689D5
:103D4800735B4E6481958870605D64798B909497FD
:103D58009C918C796E767B878C9185796B686B6E7C
:103D680085868A8B94978A74707A8B977F66464C7F
:103D7800628397A29D929786896E615C6A7F839D14
:103D88009B9A8B89858E9E93958E909699948A811D
:103D98007B75685D565E7C92AFB3A0968D8A6E5730
:103DA80046586D808A909387897A7E8794816E665B
:103DB8006F89A1B7A5906B686E6A676F8193A299A6
:103DC8008E8788806B565665838E8C8D85746B675D
:103DD8006F898C79625F7AABC4B3906559677370E9
:103DE8006A7C8390908E908F948671596771848BCA
:103DF8008B897E74676D73898D8A7A8FB4BCA5733D
:103E08004F3E4D5E79878D989C967972727F8A8B2A
:103E18007E77898C928B887E8080808378656B849E
:103E28008DA29F86656162788A9098919D9A8F7419
:103E38006C7984807A787684908F847A72706B6AD1
:103E480063676E79919F907363677C8085878B9B8E
:103E58009A8475757B7F77757580888575797C738D
:103E680072646E75776C7478797C73686A839397DB
:103E78009E98878E7B736E7A768B9684807F8788F0
:103E8800958883847C64756E6E74817C71685663D2
:103E980069848FA89A887B6C5D66747D84949291FE
:103EA8008C7E858E958990867B7A7870798C988DB2
:103EB8008F7C7B7C706A7272687E828C8B8D80802E
:103EC80089857B807B768E948C88908D80785B61E9
:103ED80082969B9D947D7C7A8082898C9993928925
:103EE8008A898FAC9277737D79655947565D464AC2
:103EF8004557618AA39FAF957A6C7E8E99ADACB217
:103F0800B69F998788806C6859685C5D52595C4F88
:103F18005D4C556A87A0AFC0BCAB9F8888817A7F0B
:103F280091A99E9E7D68625E543A40445B636F84AB
:103F380084868498A3A6B1C3C0B3A39F9C9DA29472
:103F48008A83887D7D6A666A615D4E4D4E5F666BC9
:103F58006F797A808E949AA0ABB7CCC9C1BEAE9E59
:103F68008B7776797F76636665564233334B68790B
:103F7800847D7D838FA1A7B7BCB7C3C0B2A3948C3F
:103F8800736E636A716A685D605E645B5D6A6D79B1
:103F980086849095A8A8A3A28D95898F838484830D
:103FA800856F60595C68777A818793808D848A9160
:103FB8008E958E918389867B6C6A68716C726B7E34
:103FC8007D6D7277878B9D8E8E93867A808594938C
:103FD800988E938F767D818C7F816F6F796D6770F6
:103FE8007978747373838D808C99998D9285848C7C
:103FF8007C78808B939A938E8478635966625E6B23
:104008006E777E73787E8E9298928D847B7C798D84
:104018008F999D9A8A8F7F5E504F464D615E717C65
:1040280083869A909690918E898C838889918A92BA
:104038008F8C8474626F60656B6D6F6D7A7E948807
:10404800908F928B766E757A8288878A7E6D637878
:1040580075807C7F8982877B827B797781908E903F
:10406800878289817C7F808883867371615F6D76A2
:1040780089898C7668656870767F86858A818C8B5D
:10408800899393978C95817B7B75797D85878986C4
:104098007F7C6C4F4C4C585A747C7C847A8A8C9602
:1040A80098A4A3999A8A7C737374767F7D798072B9
:1040B80075716B6567665C717573727A858B999E8D
:1040C800A4AA9D968E8576737977827F7C78716CA9
:1040D8006E716D6C6A646C6F737C828E8A8E908848
:1040E8007F83878A8C84838B83808484847A787C9A
:1040F80084858077726D63635F646F717682878968
:10410800949C9D98968C887E7B808C9087888581EE
:104118007C8080776F6D63645F5A6471747A8B8872
:104128008F8E8A8E8F87808A898B98948B837E79ED
:104138008290928F8C83766D635963616070777912
:104148007E867E868780858C8A8C96908E97938DC6
:10415800969C9C968B7D796D645D5D6466706E76C9
:10416800878D817F7E787D7F7A858D8D8F90928BEC
:104178008E83848E87827C817975726D75777B7D5D
:1041880086908F98918F928C837A7A787F7E7C83C1
:104198007C7B7C7F8081857C7F827B7B7F8487871B
:1041A800828490908E89817E7C7D7A80898A8884B9
:1041B8007E706D7070797E817F8181848C888C940B
:1041C800908D8C8781807D777E81828588868484A6
:1041D80075727675747D7D7D85847D84918A8A89E2
:1041E8008282817D7F8A8D8A867E736F6D6C707BFB
:1041F80080818582827F7C7C848A8F929497918C3F
:10420800837F7F7B7977706E6B64676F777F838539
:104218008B8C8482858C8D93938C90918E8E938FCA
:104228008B8B8C89837A6D6E726D6A6A63646A6639
:104238006B7E8990999B938F9088888C8583837EE9
:104248007C7F82838A8F8D8B887F77716A6C6C699B
:104258006C706E6E747981868C959797928C8D8C24
:104268008B817D7B787A808383878485837F7A704E
:104278006C676C716D70757B798284878F8B8C8F7E
:104288009B98978F817B7F7E787C7572746F6F7532
:1042980072717B766E6E6E6C78817E86868484847D
:1042A8007F838E8E92989A9D988E847974736D68A8
:1042B80069646667676A6D76839195918E87858D47
:1042C800898D9595928B85807F78747A817A6D69CE
:1042D800615F61636A696D6C6F727B8086959DA270
:1042E800A4A09A918F8C847F76787369625B5A65F3
:1042F800636B6B6F69687072848396999F9D928DCA
:104308008D918C8E94A4A49D968C867B7572767CF8
:104318007B7A797A7C7C78717C818482908C81A983
:10432800858F8B7398A18A5C6A6E6C7779908C966E
:104338008C8289786B576D685E615C5567727E8E7A
:104348008D838993868F7E7A7E888883787E6F7442
:1043580083909BA9A1949868555C766E72545662B6
:1043680051434B4146633F5A6B5C4E4844513A2C8B
:104378004D655B6A89828F898D9581809982798460
:104388007791A49EABA39AA69ABEE0DDEAE2DAE4AE
:10439800DDB3BDA6978A68787380839585989979E7
:1043A80075765835332E42456874696E82788B88E5
:1043B8007E909C99928483886B8A76696E736D82ED
:1043C8007F6E82726B61718586869BAEB6CBC7C6DF
:1043D800D7D9C2A5ACABA39EA2ACB9B8A0978C891B
:1043E8007C7A9194968BA4BDBEC8C8C0BEBCA0A25E
:1043F8008F8D7F737A7677706A5B533138352531C4
:104408003B3C464A3F404B565B515866454F5752D6
:1044180051515F655B5550374A4E41485D5D56586E
:10442800616C778884989A9F9A9CA3939F94918FA4
:10443800918F94816C6E5F6573736F7D7F8993A391
:10444800AAB3B8BDCCD1CEC1C5D4D4D6D4C7CED3E7
:10445800CBB3AC9A9280767B6F747E85859CA1A73E
:10446800BCB6B7B8B3A898959DA69794827D817677
:104478006B646867686860545854545B5E534E5068
:104488004E51433A41414B54564A44362A33252823
:104498002C3339474B42505D6163656358564F4929
:1044A8004A4A555555615C5A5F626A7687888C8995
:1044B80097938B89888B98ABA1A7ACAAB9B6AEBDE8
:1044C800B2B6B0AFA7927F7D8A8D98959EA9B8BFE6
:1044D800C6CBD4D7DAD3DCD2C0BAB4BEB7BAB7BA6F
:1044E800B8B7B2B09E8A7B7B6C6A6A626E787B7959
:1044F8008B90A797938E797071786D6E6B655B5D05
:10450800534949362E2D2D3839435C6F77726363D2
:104518006264625851515B66747270655F5F56558C
:1045280046414642413E3C455769696D6B65727923
:10453800817D837C808589928D8784857A838A7E34
:104548007E8881817673707E8C929694A8AEB3B47F
:10455800B7A4A5B0B8BABEC3B2B2B1A39A928C8AB6
:1045680086877E8394A1AFBAC0C7C0C6CEC8C2B87A
:10457800BBB9BDC9C6B6AAA49181766D5E564D4831
:1045880048414F67737B7E78706E7775796C676B7F
:104598006B777C79787560554E4E453B3D392D32A9
:1045A8002C292E424548575F686D786E695A5D5BC5
:1045B80060686F71787A6B656268606462564E4FA6
:1045C8004C4D5A5B637486969DA5AEB5B8B9B4AB2D
:1045D800A1A2988F8B8B88898B878C8386908B88F8
:1045E8008B7F807C849EABB5C7CDC9CCD1CAC4C9EA
:1045F800B9AFA09C9790929F9EA09E9FA4AAA89CAA
:10460800979796919C9D9790A19CA5B1ACA49E92DA
:104618008F8975867F80827765676C6B7C7C6E611D
:104628005A4D48473F51524A586B6A707D73746FB0
:10463800706D6A62645C4C493F3C46545A5D5F5CED
:104648006159514D423D3D453D57616D74787B72CE
:10465800797A786F6E676B74746C676C6B70838C27
:10466800A1A8A89D9589837E707A7E8380979C9C5B
:10467800A4A4A89D9998A0A4A2968784868590A8AA
:10468800ADABACA9A49D99969599A2ABB0B0B9BAB7
:10469800B0B3BCB8C0BFC0B9A7A1988C7C7F7D7AE5
:1046A80074787B869B9FA59D8A75655D5E666B7237
:1046B8007A7D868C858486776D67625E5C504F5004
:1046C8004D5154656F71615E4F41414047494E4BB2
:1046D800474E585D676E78828481837F6E625E4C38
:1046E8004247484C5059616B696F6A686765655FF6
:1046F800747A7D8E9B9CA09E9D9FA19787848681BE
:10470800817B737266716C74808B888A948F8F8AB0
:104718009791918F919392A2A8AAAFB4B3B7B4A47A
:104728009A887E767E7D7B86777C878C8C90888441
:10473800847B767E7D859899A0ADAAA6AEB1AF9709
:104748008C7F7466595C595A636C7186868C958C1B
:104758008D897E74797D737B818292989BA29E8ECF
:10476800898B7D6F6C655E5B5359686F808C929EF8
:10477800978979776A5C5753536476708995A7A8A7
:10478800ACAEA89C83816F6D686C656E72737D7F1B
:10479800848D8D8A8C807D7B7668716C768391910F
:1047A8009DAAA7AB9C958986727370706F7D848F64
:1047B8009D999D918D8A887B78686F68727A747CE0
:1047C8007B8483888A82777D756E70727380898F07
:1047D8008C8F8083867B8174716A6F605D585E6A96
:1047E8006C7585928F9F9797928E8F8B898A8A7E18
:1047F8007B7B74797E76717576727A7378898A890B
:104808009392878C8280837F737B82858D8F898743
:1048180095918776716D67717B81888C847A7763CF
:104828005D686B74818E9EACA8AFAFA89D958F888C
:1048380089887F7C787B75676C7477757C7D7C88CC
:104848009D9B9EA09C9A9D9496989190888A817B26
:104858006C665B61605C666D77888A75797A66627A
:104868006761656E6A738383969892989F92868033
:104878006F75746C6868676D6A636360606F736A8C
:104888006D797775818284868E8E89868E88787C0C
:104898007D7876796E62635E63686F7B7D78767803
:1048A8006A70786D738885819C9D989E9E97969571
:1048B800868272757C6E64696D646F67656A7B8ACF
:1048C800919AA1A69F9E9A94919188888E928F8E94
:1048D8008D908E908F81726B6C636F6E6F707D8020
:1048E800797B7982797E87918E939D95989794901C
:1048F8009D9E9086857C74756459595C56565B629A
:104908006C74818D95959FA79E9AA59F94928F8A86
:10491800877866635E626764606B736D6F757571C7
:104928007578807F787776717A7E7A889393929477
:10493800958E8782837F76736D6869675A5D615D3E
:10494800606E7C7D8898A2A6A59B929799908E9080
:1049580095968D898986888A88817E786C6666575F
:1049680057616A7D8E9BA3A8A19E9F9C959388847E
:104978008A817E828180878C8D90887F80746C6725
:104988005D5D686D71808E969CA3A0A2988D9085C0
:104998007B787470787D828A959A979592928880B0
:1049A8007C78746D656D777A7D7F838C998E888726
:1049B80080838B8D888A838683857F7574717669F9
:1049C8006F757276828C8B908D86878784847F81C1
:1049D8008687857F727175787E84827C8384888BD4
:1049E8008C8A8F8D959A93939291827B706A6F745B
:1049F80072777F8995979B9F9D8D8C8476726D6B5E
:104A08006A74797E7E84878689898D888F9691914C
:104A18008F8C847C767378777C7D8286877E79809C
:104A28007A776D6E6B787C828F8E96979E989E9A19
:104A380097948F8E808679746E686C6D797A82828D
:104A480085807B776C6D6366656A707581859595E1
:104A58009BA3A19E9795857E7A77726E6C6B737017
:104A68007274777F7B726D747570747170778384DC
:104A78008C9B9B9A99A2A2A39D9B988B7D6E675B4A
:104A88005C5B595D6169737E838B8D8C8B86857EBB
:104A98007D7B7B7F828C8D8D8A8D908A8680807CC1
:104AA8007D7B756D69655E62656D6F757A757B7DF9
:104AB800818285878681838B8792999A959CA29417
:104AC8008C7E7A77716F70706D6E676467656671DA
:104AD8007A7D8C8D8B9192908F88807A726D6B6FB6
:104AE8006A717C828B8E8A83837D7E7F7A75716CF6
:104AF8006E7675777B7B78797773808388858787EF
:104B0800817E7980787F85878B9191898B80787772
:104B1800797876776F736D6E7B7F797573696E6E52
:104B280075767A8784858186807C7E787D80807F93
:104B38008A8D9194888278726E7368606B6C6F6EE0
:104B4800676264656770727E878F90989B8C908B84
:104B5800898787817D8383817A7B736F6C696B6AB0
:104B680073747678797E756D6F7B7C7E838083889D
:104B78008C86898B8884756D6C68656F7475797897
:104B88007B81827F85867F776D666F6E6E767C838C
:104B980081858B9493939392928C837571655F5DF5
:104BA800616E7070727F827F80818989877D756E62
:104BB8006C6D6D7A7E7C7C8785828E8D908F877DEB
:104BC8007E7872726E71797B747B7F808686868927
:104BD8008477716B625D5E636E75829596939E9E17
:104BE800979E9D8F86857B7475726C6B6E787A7CC8
:104BF8008584888F93897E79766F6C75797A7884C5
:104C08008989939997959A948B817A787372726D42
:104C1800697277788286858A928F8787857D77798A
:104C28007B7B7A878C8D9A9D9C999D9991868282AF
:104C38007C7A766F6C706D6C757D838E9195958D91
:104C48008A877D7F7D7B7E8187848C8C9191949AE5
:104C5800988B80817C7E7D7B747376737477797E84
:104C68007E7F86868384828287807D818A888F92F0
:104C7800929B99999D9E928D7E777D746F787E6FB9
:104C8800728671767C707881898CA19E9FAEB09176
:104C98008C7A606561647C9FACBA8F6A5D404348DA
:104CA8005581959C9692957E5656768F9D928161F8
:104CB8006251689C9C9C9197867879867F7E8E8FBE
:104CC800A19B8A8D8374756F8386838F8F867863A3
:104CD8005C6E6E71858680908E837F8179738394F4
:104CE8009C8F92938285837C858E8E958E796C6459
:104CF8005C55646972857C8188797C878E949F9ADB
:104D0800948E8B948A8A8F908B857B77726E707461
:104D180072767B7A827E8478757A80827A807D88C2
:104D280089869591908C7D7B827E6A7A8B8F917D26
:104D38006F6A6C686C6D697468676F767F86939626
:104D4800A6A08E887A7F898C919198959791837F78
:104D58007B7D7A7C787772727E79767E8B8E9B9D4E
:104D68008E8A7F77736F7582808C93919289887809
:104D78008080767C7F8689907C75716B7873767F6E
:104D8800897B7F7D6F796E77818C877E7775878049
:104D98007A7C8A8A8E958D877C7E7F8387848487B8
:104DA800908D81777A71727B7C84828584847C7013
:104DB8006D666B767C7D83827D87877E7E80868329
:104DC800847571737483797B77776A6C766B716C91
:104DD800717A8688858887908A827E7E78767C7AC2
:104DE8007C79737A837C766F6D787B756D75707559
:104DF80086838A86878B908A7D79717772757D84A0
:104E08007D6F80847E7D7F888D8675696D6C7375F6
:104E1800767D747174807E7A7C7A83817C747C7BE5
:104E2800808D898B817E7979757174737983888295
:104E38007D7B8084827D7F807A817C787E8381847B
:104E48008B7E7D75737E868581837788897C7E7D60
:104E58007D838375797B79787571777F79808C8488
:104E68007A75707D837D868789878F847A7E707A4C
:104E78007B7E797876777F6C74787B7E898B888E59
:104E88008289897F7977787F847F83857F7B86870E
:104E9800857D73787F7F777F7F89867C817F847F1C
:104EA8008685817E7578788181837C7F8E878C86E4
:104EB8007E8087847F817E87838488887C7F8480C6
:104EC8008883807C868187898590898B88897B7D8A
:104ED80086767C777B7C808481887E8280848B89BF
:104EE800807F877C81827F857F7980857F81807EB6
:104EF8007F8179808B82888887888B898786777C71
:104F08007C7C85867F7E8880868A83857E7C7E7E83
:104F18007C83857D85858180868481857B7B7C7D7E
:104F2800858685898881858B86858A838384787838
:104F38007975757670777E7C818486828784848A89
:104F4800898F8F8C88827E80817E858379777C7D2E
:104F58007E827D807F7C81807F81807A7C82858350
:104F6800898D898A8784817C76746E6F716F7D865E
:104F78008380828082817A79787172767A848C8C47
:104F88008B8D8C8D898584838381837E7E817775E3
:104F98007671717978777E797C81838789827F833E
:104FA8007C828A8A878986808483807D7E747475F2
:104FB800747B75777B7A778282778184807E85811E
:104FC8007D79757C707078807F858D82817B7C7E11
:104FD800857F80847B7E76797A8082868B7D7C7DD6
:104FE80080777B7E7B7F798284868689807A8177C9
:104FF800767579737477737A7A817D7B7C82818107
:105008008A807E7B7B767A7E767B76777B7B767BE7
:105018007D757B7D7B7C7E7779827E8286888482A3
:10502800807E7C797E7D787779737984807E7C77C1
:10503800797E7C85877E7F7F76757C797C86848285
:105048008785807F7B7F858283847D777B79777E68
:105058007D7877776F706F757C777C83807A807EB8
:105068007D85838184877F7D7877807C7C7E7E7553
:105078007777768789828389807F807A827E787C39
:10508800807A7D7E767B7D7879828183898183842D
:10509800808187817E857E8289827B7D7A7179791C
:1050A800797F7A7E827C767B75737E7D7A82847E38
:1050B800807F797F7F7C8083817D837E8B837B7FEC
:1050C8007C788087828F897F7C82818088868889A6
:1050D80086857F848792878A8E7F827A7A6B6D64D1
:1050E800677B756F7A7B7C84858387907F828586D2
:1050F800938A7F7F898683817E8C8B858186858351
:105108008578787B7374747D8B828085858A949981
:10511800887E81827A7380837F81777E858C978869
:10512800848F8B7E787C78716F61626D66757A7812
:105138009491859991979A9E9691938B998D847065
:105148007F7D70776F818C8078887C90998A949E17
:105158009A8B858793917F7D86858786796C807EFB
:1051680078817E7D7677727E76859B7B73837B677D
:1051780069818B87836F80838FA98E8BA7B5A19D4B
:10518800938470626B6C837977736979726F7C90A2
:10519800989EA3999B9FAFB7AF9B9598888780757A
:1051A800686E615D6C606B73767B857D7B818181C8
:1051B8007B605773737B878379848D8F9092858EFC
:1051C80094919987A5AF9C82908F726E7979666267
:1051D8003F43495E6354596B7B7D81839294ADA6AE
:1051E800A9AFB2B4A8AAA8ACA49D97A1998E7365DB
:1051F800707C725C5D505757575462676A685A648E
:105208006C7984958E96969190A7B19B96909F9A6B
:105218009C987F6B6C766B66625753555B515B73DA
:10522800878E87888C978F9DA2A5988485889D985E
:105238008D807E827A746968646F71616575817C1E
:105248007B868D958F92958E8B756F717B8174653A
:105258006E77858074848A876F716F788286887F7D
:10526800837C7473868A7E6F707E8887827C818E49
:105278008F928E85827E817D6E77787E787D84811F
:1052880084768E8B8F857A807C979F9C8C94948E65
:1052980085787E787A70656570777B83757A7A7C95
:1052A80075748A7672656E73787C5F636278716BE9
:1052B800787E8C8A82728B9AA2A0A1AFA198919DC8
:1052C800928877676164776F6D606A706D696068EE
:1052D8006D7A6F6F7C879897959693857B8B8A8973
:1052E800826E697A8385877E80777E84796F6C6B1E
:1052F800575557505A6F61687D7D818C9B9A978767
:105308008A8984908B77788C8180867A7D7C766F89
:105318006B6B75837673796C6C81818E9A8F908DA7
:105328008D8E93796E766F716C615F787F77747507
:105338007D868684867F7A707077826D5662686E05
:1053480084867F88878C827C828C878A8F85858FEC
:105358009C87908F877B6E78786F62675A6A7673BE
:105368006C7682797C6F8988868F8683788A8A8F23
:1053780092908B849294988B8A856C767F7E7271DA
:1053880063616B625E586C6C736B728488A4A0A5B1
:105398009EADA49DB0A7A38B897E82868072626A27
:1053A8007073686E686971706A6E8683838A96A165
:1053B8009595969F99929081828A8372797A827D57
:1053C800737C8082868C828885847F8583777771D9
:1053D8007A7E82898D848E968B8B958E859084803B
:1053E8007D7E8484878782838483857F7C6E7782B1
:1053F80076767C7F7D838B9693888282857D7D7788
:105408007D828182787E8D8C8285918E8386909133
:105418008B837C7B848779767776757A837F898F8F
:10542800898B8D9EA0999C999488888183817775B2
:105438007072798277717678777170717A79838FE3
:105448008F959B96919E968C8E82888C887E808A7A
:1054580086887D81837A7C7F7B757C74747D796D89
:105468006B6D708588828788838B9191988C929ACE
:10547800958F868581857B7480857F81837D8784F0
:105488007C7C7972736D6E7F7D808B8479837F736A
:1054980073717276776A707B818A857F9796899314
:1054A8008D89877F72797B6F6E6B68767D6D797C6D
:1054B800737572707882818E8F858C8F89909181B7
:1054C800838B7E7D7C7777767174796D7273677361
:1054D8007F787D86807E84827E818788857A7479CC
:1054E800767570686B7C726B776F6E6868707572B2
:1054F800686A717A888D8993918A8E8E8C8D898459
:1055080085807F827E79747470727369656365695A
:10551800727E86878A8F9592969D949392867C84D4
:1055280081797C7977747B7B78756E66656F756F2A
:105538006674777A848D8B86877D7E868683868A55
:105548008C8B858587867F7F7574786F717E827B6B
:1055580085858C969291949990938A8280787674B6
:10556800767D8A8385897D7C8380727D797783883F
:105578008A8E968E93919290827E8184797D7670C0
:105588007871686D75737E7D78827F7C848A88A146
:1055980098889B939491958E9294868B81867F842C
:1055A800847E7D787174736D7C7A858781898E900D
:1055B8008A9591878E7D838D8D8A8E7E7E808A8E58
:1055C80074926C7670587A85845E6F7479857B8C5A
:1055D800848C80767B7D8F818E7C656A69616E7D27
:1055E8007988918B98AFA6B2AAAAAAA4999AA0A2E0
:1055F800A9A8B29DA89FA19C9E8F7287798D8C8146
:105608007E6656372C303935363931494C566469FF
:105618006B5F5D6A7A72949B909C88867F797E7FA7
:10562800887C7F7E9AAAA09D8A937E71869497A58E
:10563800B2B4DBD7BDC1C5BDA0968E9080968C7CD8
:1056480087736455644744403A3C405B643F473C39
:10565800425E37445E726E766A776D635F56646445
:1056680079767A75756C6B636A7D766B6C787190F8
:105678009782949888817D8394ADB7C2CAD1D9C8DE
:10568800CFD1D3B7B3B4ABAB979F9EA398A69C9842
:105698008D787C87997E89897F755E6162585469A7
:1056A8006B574D4F555F655D4A4F3A29343343393F
:1056B8003645402D43404757483A3E4B323C5250BE
:1056C8005464697477858C89877F827E8E82767B25
:1056D8007D7974868F979F8C85848B92828A868940
:1056E80081898F8A9C979C9B968687949FA5A9AC55
:1056F800ACB4B5BCB3B3ACABAAA4ABA5A4A0A6B0DC
:10570800AEAA9A999386887F838896928E9D98935D
:1057180099A2918D8679737179736C7473666B73C2
:1057280066625F5F554D514A494C4E4D54525A5628
:1057380054544F4E4B615E6264616F6663626A6780
:105748006968576869676572776E766C767275797D
:105758007E888B9796A3B3B2ABB4B5ACB3B2B0B4F2
:10576800B1B1B5B4B8BFB8BEC0B9AFB7BEB0B5B2C5
:10577800B6AEB3B7BDC6B9C3B8BBB9B4AFADB6A5BD
:10578800A8A9ACAFACAEA9AEA19F948D9288807B3E
:105798008A86868D86817B6E6C71696C6F6A6B7583
:1057A800716D7A716B6C6A6159575760545C5F5AB6
:1057B8005D61605A66605A5B5E595251525C57553A
:1057C8005C57575E5B5E686E69686F6B6C64677583
:1057D800787A787E7B827B757B7C847B7F7D7C7707
:1057E80071807D808081838692919496A09E9BA1F2
:1057F8009D9592979D9E9FA39EA4A5A5A5A2A8A2AC
:10580800A49F9E98939C999D969A97959A92999001
:10581800908E898D909388898C8F857F827F7F7BFE
:1058280077757877736B6E6B615C626A61666260CC
:10583800636A655F645F5E535054524E4E585351CD
:105848004F4C4E4D4E4B4E4F505552525B55546037
:10585800616266615A635F5D65636A6D6F6C7A76D3
:105868006E808082817F79807E798482888C8C8723
:10587800918C7F8A8E8D8D8F879499939A9EA19E05
:10588800A1919B9F94999BA39DA39A9EA19BA5A13F
:10589800A4A0A8969AA3979E9CA19EA19897999137
:1058A8009991929096919097939492948F8F8B8DD3
:1058B800857F8382847E807A797876757578767824
:1058C80072787572777577736F6667605E5E59591F
:1058D8005B5A54605C575959585B5A545B555C5C29
:1058E8005A5B6067616D6A686C6B6B6C6C646C6842
:1058F8006C757275757A77807E787A7B7C7D7C7919
:105908008682858A898A8A8D8D969A9A99999BA189
:105918009D959D9A979A9693959291959898969514
:1059280098A09D9CA0A09FA3A19C9C989D9F9EA091
:10593800A09A979D9997979796999790908B9096FC
:105948009593928D898E8B89878884868883847CB9
:105958007D81827F837F7B7F7D78767871736F67A7
:1059680063615F6466646862595C60606261606319
:10597800635D5C58545A5B5963635E60666667682A
:10598800666D6E6D6968656E716C76756F6C706E3C
:1059980070736D7677767674717983808A8D878651
:1059A8008B878A8F858A8F8787867F848A858B9164
:1059B80085848B87858783828985888C85868A8973
:1059C8008A9289818584848785838D878388848268
:1059D80083837E8481787C7E81838684888B878D8F
:1059E8008C8A8D94929599919091908E908C8A8AB8
:1059F800838084837D848280837D7780827C848198
:105A08007A7A79747B797481848188897F83867CAA
:105A18007E807B7D7E757B7F757C817A7B7B6E6DDE
:105A2800736B6F787275786F71756C727F797F851B
:105A38007D7E84807E847D7B7C716F7773707772C6
:105A480071787272757071797773787275746A6A21
:105A58007170727B78797A74737A7773746C686E04
:105A68006C6A716E737976797D78767E7D7E7D78C5
:105A78007E807F8290899096919597949199939141
:105A88008A878583807B817D818582888B868791C3
:105A98008F8D8B878A87897D83868C948A959B9640
:105AA8008A8F9593868B908B8A828D8C91919A9B05
:105AB800969A92978B96928B8F898C858C847A7B19
:105AC80083868D9B928D8A8A8983817D7D6F726F93
